{
  "_format": "hh-sol-artifact-1",
  "contractName": "YDC_Certificate",
  "sourceName": "contracts/YDC_Certificate.sol",
  "abi": [
    {
      "inputs": [],
      "stateMutability": "nonpayable",
      "type": "constructor"
    },
    {
      "inputs": [],
      "name": "ERC721EnumerableForbiddenBatchMint",
      "type": "error"
    },
    {
      "inputs": [
        {
          "internalType": "address",
          "name": "sender",
          "type": "address"
        },
        {
          "internalType": "uint256",
          "name": "tokenId",
          "type": "uint256"
        },
        {
          "internalType": "address",
          "name": "owner",
          "type": "address"
        }
      ],
      "name": "ERC721IncorrectOwner",
      "type": "error"
    },
    {
      "inputs": [
        {
          "internalType": "address",
          "name": "operator",
          "type": "address"
        },
        {
          "internalType": "uint256",
          "name": "tokenId",
          "type": "uint256"
        }
      ],
      "name": "ERC721InsufficientApproval",
      "type": "error"
    },
    {
      "inputs": [
        {
          "internalType": "address",
          "name": "approver",
          "type": "address"
        }
      ],
      "name": "ERC721InvalidApprover",
      "type": "error"
    },
    {
      "inputs": [
        {
          "internalType": "address",
          "name": "operator",
          "type": "address"
        }
      ],
      "name": "ERC721InvalidOperator",
      "type": "error"
    },
    {
      "inputs": [
        {
          "internalType": "address",
          "name": "owner",
          "type": "address"
        }
      ],
      "name": "ERC721InvalidOwner",
      "type": "error"
    },
    {
      "inputs": [
        {
          "internalType": "address",
          "name": "receiver",
          "type": "address"
        }
      ],
      "name": "ERC721InvalidReceiver",
      "type": "error"
    },
    {
      "inputs": [
        {
          "internalType": "address",
          "name": "sender",
          "type": "address"
        }
      ],
      "name": "ERC721InvalidSender",
      "type": "error"
    },
    {
      "inputs": [
        {
          "internalType": "uint256",
          "name": "tokenId",
          "type": "uint256"
        }
      ],
      "name": "ERC721NonexistentToken",
      "type": "error"
    },
    {
      "inputs": [
        {
          "internalType": "address",
          "name": "owner",
          "type": "address"
        },
        {
          "internalType": "uint256",
          "name": "index",
          "type": "uint256"
        }
      ],
      "name": "ERC721OutOfBoundsIndex",
      "type": "error"
    },
    {
      "inputs": [
        {
          "internalType": "address",
          "name": "owner",
          "type": "address"
        }
      ],
      "name": "OwnableInvalidOwner",
      "type": "error"
    },
    {
      "inputs": [
        {
          "internalType": "address",
          "name": "account",
          "type": "address"
        }
      ],
      "name": "OwnableUnauthorizedAccount",
      "type": "error"
    },
    {
      "anonymous": false,
      "inputs": [
        {
          "indexed": true,
          "internalType": "address",
          "name": "owner",
          "type": "address"
        },
        {
          "indexed": true,
          "internalType": "address",
          "name": "approved",
          "type": "address"
        },
        {
          "indexed": true,
          "internalType": "uint256",
          "name": "tokenId",
          "type": "uint256"
        }
      ],
      "name": "Approval",
      "type": "event"
    },
    {
      "anonymous": false,
      "inputs": [
        {
          "indexed": true,
          "internalType": "address",
          "name": "owner",
          "type": "address"
        },
        {
          "indexed": true,
          "internalType": "address",
          "name": "operator",
          "type": "address"
        },
        {
          "indexed": false,
          "internalType": "bool",
          "name": "approved",
          "type": "bool"
        }
      ],
      "name": "ApprovalForAll",
      "type": "event"
    },
    {
      "anonymous": false,
      "inputs": [
        {
          "indexed": false,
          "internalType": "uint256",
          "name": "_fromTokenId",
          "type": "uint256"
        },
        {
          "indexed": false,
          "internalType": "uint256",
          "name": "_toTokenId",
          "type": "uint256"
        }
      ],
      "name": "BatchMetadataUpdate",
      "type": "event"
    },
    {
      "anonymous": false,
      "inputs": [
        {
          "indexed": false,
          "internalType": "uint256",
          "name": "_tokenId",
          "type": "uint256"
        }
      ],
      "name": "MetadataUpdate",
      "type": "event"
    },
    {
      "anonymous": false,
      "inputs": [
        {
          "indexed": true,
          "internalType": "address",
          "name": "previousOwner",
          "type": "address"
        },
        {
          "indexed": true,
          "internalType": "address",
          "name": "newOwner",
          "type": "address"
        }
      ],
      "name": "OwnershipTransferStarted",
      "type": "event"
    },
    {
      "anonymous": false,
      "inputs": [
        {
          "indexed": true,
          "internalType": "address",
          "name": "previousOwner",
          "type": "address"
        },
        {
          "indexed": true,
          "internalType": "address",
          "name": "newOwner",
          "type": "address"
        }
      ],
      "name": "OwnershipTransferred",
      "type": "event"
    },
    {
      "anonymous": false,
      "inputs": [
        {
          "indexed": true,
          "internalType": "address",
          "name": "from",
          "type": "address"
        },
        {
          "indexed": true,
          "internalType": "address",
          "name": "to",
          "type": "address"
        },
        {
          "indexed": true,
          "internalType": "uint256",
          "name": "tokenId",
          "type": "uint256"
        }
      ],
      "name": "Transfer",
      "type": "event"
    },
    {
      "inputs": [],
      "name": "acceptOwnership",
      "outputs": [],
      "stateMutability": "nonpayable",
      "type": "function"
    },
    {
      "inputs": [
        {
          "internalType": "address",
          "name": "target",
          "type": "address"
        }
      ],
      "name": "acceptOwnershipForMe",
      "outputs": [],
      "stateMutability": "nonpayable",
      "type": "function"
    },
    {
      "inputs": [
        {
          "internalType": "address",
          "name": "to",
          "type": "address"
        },
        {
          "internalType": "uint256",
          "name": "tokenId",
          "type": "uint256"
        }
      ],
      "name": "approve",
      "outputs": [],
      "stateMutability": "nonpayable",
      "type": "function"
    },
    {
      "inputs": [
        {
          "internalType": "address",
          "name": "owner",
          "type": "address"
        }
      ],
      "name": "balanceOf",
      "outputs": [
        {
          "internalType": "uint256",
          "name": "",
          "type": "uint256"
        }
      ],
      "stateMutability": "view",
      "type": "function"
    },
    {
      "inputs": [],
      "name": "baseURI",
      "outputs": [
        {
          "internalType": "string",
          "name": "",
          "type": "string"
        }
      ],
      "stateMutability": "view",
      "type": "function"
    },
    {
      "inputs": [
        {
          "internalType": "uint256",
          "name": "tokenId",
          "type": "uint256"
        }
      ],
      "name": "getApproved",
      "outputs": [
        {
          "internalType": "address",
          "name": "",
          "type": "address"
        }
      ],
      "stateMutability": "view",
      "type": "function"
    },
    {
      "inputs": [],
      "name": "getMyCertificates",
      "outputs": [
        {
          "components": [
            {
              "internalType": "uint256",
              "name": "tokenId",
              "type": "uint256"
            },
            {
              "internalType": "uint64",
              "name": "courseId",
              "type": "uint64"
            },
            {
              "internalType": "uint256",
              "name": "courseTokenId",
              "type": "uint256"
            },
            {
              "internalType": "string",
              "name": "uri",
              "type": "string"
            }
          ],
          "internalType": "struct ST_YDC_Certificate_URI[]",
          "name": "",
          "type": "tuple[]"
        }
      ],
      "stateMutability": "view",
      "type": "function"
    },
    {
      "inputs": [
        {
          "internalType": "address",
          "name": "owner",
          "type": "address"
        }
      ],
      "name": "getTokensAndURIsOfOwner",
      "outputs": [
        {
          "internalType": "uint256[]",
          "name": "tokenIds",
          "type": "uint256[]"
        },
        {
          "internalType": "string[]",
          "name": "uris",
          "type": "string[]"
        }
      ],
      "stateMutability": "view",
      "type": "function"
    },
    {
      "inputs": [
        {
          "internalType": "address",
          "name": "owner",
          "type": "address"
        }
      ],
      "name": "getTokensOfOwner",
      "outputs": [
        {
          "internalType": "uint256[]",
          "name": "",
          "type": "uint256[]"
        }
      ],
      "stateMutability": "view",
      "type": "function"
    },
    {
      "inputs": [
        {
          "internalType": "address",
          "name": "owner",
          "type": "address"
        },
        {
          "internalType": "address",
          "name": "operator",
          "type": "address"
        }
      ],
      "name": "isApprovedForAll",
      "outputs": [
        {
          "internalType": "bool",
          "name": "",
          "type": "bool"
        }
      ],
      "stateMutability": "view",
      "type": "function"
    },
    {
      "inputs": [
        {
          "internalType": "uint256",
          "name": "",
          "type": "uint256"
        }
      ],
      "name": "mapCertificate",
      "outputs": [
        {
          "internalType": "uint64",
          "name": "courseId",
          "type": "uint64"
        },
        {
          "internalType": "uint256",
          "name": "courseTokenId",
          "type": "uint256"
        }
      ],
      "stateMutability": "view",
      "type": "function"
    },
    {
      "inputs": [],
      "name": "name",
      "outputs": [
        {
          "internalType": "string",
          "name": "",
          "type": "string"
        }
      ],
      "stateMutability": "view",
      "type": "function"
    },
    {
      "inputs": [],
      "name": "owner",
      "outputs": [
        {
          "internalType": "address",
          "name": "",
          "type": "address"
        }
      ],
      "stateMutability": "view",
      "type": "function"
    },
    {
      "inputs": [
        {
          "internalType": "uint256",
          "name": "tokenId",
          "type": "uint256"
        }
      ],
      "name": "ownerOf",
      "outputs": [
        {
          "internalType": "address",
          "name": "",
          "type": "address"
        }
      ],
      "stateMutability": "view",
      "type": "function"
    },
    {
      "inputs": [],
      "name": "pendingOwner",
      "outputs": [
        {
          "internalType": "address",
          "name": "",
          "type": "address"
        }
      ],
      "stateMutability": "view",
      "type": "function"
    },
    {
      "inputs": [],
      "name": "renounceOwnership",
      "outputs": [],
      "stateMutability": "nonpayable",
      "type": "function"
    },
    {
      "inputs": [
        {
          "internalType": "address",
          "name": "to",
          "type": "address"
        },
        {
          "internalType": "uint64",
          "name": "courseId",
          "type": "uint64"
        },
        {
          "internalType": "uint256",
          "name": "courseTokenId",
          "type": "uint256"
        }
      ],
      "name": "reward",
      "outputs": [
        {
          "internalType": "uint256",
          "name": "",
          "type": "uint256"
        }
      ],
      "stateMutability": "nonpayable",
      "type": "function"
    },
    {
      "inputs": [
        {
          "internalType": "address",
          "name": "from",
          "type": "address"
        },
        {
          "internalType": "address",
          "name": "to",
          "type": "address"
        },
        {
          "internalType": "uint256",
          "name": "tokenId",
          "type": "uint256"
        }
      ],
      "name": "safeTransferFrom",
      "outputs": [],
      "stateMutability": "nonpayable",
      "type": "function"
    },
    {
      "inputs": [
        {
          "internalType": "address",
          "name": "from",
          "type": "address"
        },
        {
          "internalType": "address",
          "name": "to",
          "type": "address"
        },
        {
          "internalType": "uint256",
          "name": "tokenId",
          "type": "uint256"
        },
        {
          "internalType": "bytes",
          "name": "data",
          "type": "bytes"
        }
      ],
      "name": "safeTransferFrom",
      "outputs": [],
      "stateMutability": "nonpayable",
      "type": "function"
    },
    {
      "inputs": [
        {
          "internalType": "address",
          "name": "operator",
          "type": "address"
        },
        {
          "internalType": "bool",
          "name": "approved",
          "type": "bool"
        }
      ],
      "name": "setApprovalForAll",
      "outputs": [],
      "stateMutability": "nonpayable",
      "type": "function"
    },
    {
      "inputs": [
        {
          "internalType": "string",
          "name": "newBaseURI",
          "type": "string"
        }
      ],
      "name": "setBaseURI",
      "outputs": [],
      "stateMutability": "nonpayable",
      "type": "function"
    },
    {
      "inputs": [
        {
          "internalType": "bytes4",
          "name": "interfaceId",
          "type": "bytes4"
        }
      ],
      "name": "supportsInterface",
      "outputs": [
        {
          "internalType": "bool",
          "name": "",
          "type": "bool"
        }
      ],
      "stateMutability": "view",
      "type": "function"
    },
    {
      "inputs": [],
      "name": "symbol",
      "outputs": [
        {
          "internalType": "string",
          "name": "",
          "type": "string"
        }
      ],
      "stateMutability": "view",
      "type": "function"
    },
    {
      "inputs": [
        {
          "internalType": "uint256",
          "name": "index",
          "type": "uint256"
        }
      ],
      "name": "tokenByIndex",
      "outputs": [
        {
          "internalType": "uint256",
          "name": "",
          "type": "uint256"
        }
      ],
      "stateMutability": "view",
      "type": "function"
    },
    {
      "inputs": [
        {
          "internalType": "address",
          "name": "owner",
          "type": "address"
        },
        {
          "internalType": "uint256",
          "name": "index",
          "type": "uint256"
        }
      ],
      "name": "tokenOfOwnerByIndex",
      "outputs": [
        {
          "internalType": "uint256",
          "name": "",
          "type": "uint256"
        }
      ],
      "stateMutability": "view",
      "type": "function"
    },
    {
      "inputs": [
        {
          "internalType": "uint256",
          "name": "tokenId",
          "type": "uint256"
        }
      ],
      "name": "tokenURI",
      "outputs": [
        {
          "internalType": "string",
          "name": "",
          "type": "string"
        }
      ],
      "stateMutability": "view",
      "type": "function"
    },
    {
      "inputs": [],
      "name": "totalSupply",
      "outputs": [
        {
          "internalType": "uint256",
          "name": "",
          "type": "uint256"
        }
      ],
      "stateMutability": "view",
      "type": "function"
    },
    {
      "inputs": [
        {
          "internalType": "address",
          "name": "from",
          "type": "address"
        },
        {
          "internalType": "address",
          "name": "to",
          "type": "address"
        },
        {
          "internalType": "uint256",
          "name": "tokenId",
          "type": "uint256"
        }
      ],
      "name": "transferFrom",
      "outputs": [],
      "stateMutability": "nonpayable",
      "type": "function"
    },
    {
      "inputs": [
        {
          "internalType": "address",
          "name": "newOwner",
          "type": "address"
        }
      ],
      "name": "transferOwnership",
      "outputs": [],
      "stateMutability": "nonpayable",
      "type": "function"
    }
  ],
  "bytecode": "0x608060405234801561001057600080fd5b506040518060400160405280601a81526020017f596944656e6720436f6c6c6567652043657274696669636174650000000000008152506040518060400160405280600e81526020017f5944434365727469666963617465000000000000000000000000000000000000815250818161008d61013860201b60201c565b600073ffffffffffffffffffffffffffffffffffffffff168173ffffffffffffffffffffffffffffffffffffffff16036100ff5760006040517f1e4fbdf70000000000000000000000000000000000000000000000000000000081526004016100f6919061027c565b60405180910390fd5b61010e8161014060201b60201c565b50816002908161011e91906104e7565b50806003908161012e91906104e7565b50505050506105b9565b600033905090565b600160006101000a81549073ffffffffffffffffffffffffffffffffffffffff02191690556101748161017760201b60201c565b50565b60008060009054906101000a900473ffffffffffffffffffffffffffffffffffffffff169050816000806101000a81548173ffffffffffffffffffffffffffffffffffffffff021916908373ffffffffffffffffffffffffffffffffffffffff1602179055508173ffffffffffffffffffffffffffffffffffffffff168173ffffffffffffffffffffffffffffffffffffffff167f8be0079c531659141344cd1fd0a4f28419497f9722a3daafe3b4186f6b6457e060405160405180910390a35050565b600073ffffffffffffffffffffffffffffffffffffffff82169050919050565b60006102668261023b565b9050919050565b6102768161025b565b82525050565b6000602082019050610291600083018461026d565b92915050565b600081519050919050565b7f4e487b7100000000000000000000000000000000000000000000000000000000600052604160045260246000fd5b7f4e487b7100000000000000000000000000000000000000000000000000000000600052602260045260246000fd5b6000600282049050600182168061031857607f821691505b60208210810361032b5761032a6102d1565b5b50919050565b60008190508160005260206000209050919050565b60006020601f8301049050919050565b600082821b905092915050565b6000600883026103937fffffffffffffffffffffffffffffffffffffffffffffffffffffffffffffffff82610356565b61039d8683610356565b95508019841693508086168417925050509392505050565b6000819050919050565b6000819050919050565b60006103e46103df6103da846103b5565b6103bf565b6103b5565b9050919050565b6000819050919050565b6103fe836103c9565b61041261040a826103eb565b848454610363565b825550505050565b600090565b61042761041a565b6104328184846103f5565b505050565b5b818110156104565761044b60008261041f565b600181019050610438565b5050565b601f82111561049b5761046c81610331565b61047584610346565b81016020851015610484578190505b61049861049085610346565b830182610437565b50505b505050565b600082821c905092915050565b60006104be600019846008026104a0565b1980831691505092915050565b60006104d783836104ad565b9150826002028217905092915050565b6104f082610297565b67ffffffffffffffff811115610509576105086102a2565b5b6105138254610300565b61051e82828561045a565b600060209050601f831160018114610551576000841561053f578287015190505b61054985826104cb565b8655506105b1565b601f19841661055f86610331565b60005b8281101561058757848901518255600182019150602085019450602081019050610562565b868310156105a457848901516105a0601f8916826104ad565b8355505b6001600288020188555050505b505050505050565b6138be806105c86000396000f3fe608060405234801561001057600080fd5b50600436106101cf5760003560e01c80636c0360eb1161010457806395d89b41116100a2578063c87b56dd11610071578063c87b56dd14610542578063e30c397814610572578063e985e9c514610590578063f2fde38b146105c0576101cf565b806395d89b41146104d05780639937e224146104ee578063a22cb4651461050a578063b88d4fde14610526576101cf565b806379ba5097116100de57806379ba5097146104595780637c573169146104635780638c903836146104815780638da5cb5b146104b2576101cf565b80636c0360eb1461040157806370a082311461041f578063715018a61461044f576101cf565b80632f745c591161017157806355f804b31161014b57806355f804b3146103555780635951532b146103715780635de6dc55146103a15780636352211e146103d1576101cf565b80632f745c59146102d957806342842e0e146103095780634f6ccce714610325576101cf565b8063081812fc116101ad578063081812fc14610253578063095ea7b31461028357806318160ddd1461029f57806323b872dd146102bd576101cf565b806301beeb6a146101d457806301ffc9a71461020557806306fdde0314610235575b600080fd5b6101ee60048036038101906101e99190612779565b6105dc565b6040516101fc9291906127d8565b60405180910390f35b61021f600480360381019061021a9190612859565b610614565b60405161022c91906128a1565b60405180910390f35b61023d610626565b60405161024a919061294c565b60405180910390f35b61026d60048036038101906102689190612779565b6106b8565b60405161027a91906129af565b60405180910390f35b61029d600480360381019061029891906129f6565b6106d4565b005b6102a76106ea565b6040516102b49190612a36565b60405180910390f35b6102d760048036038101906102d29190612a51565b6106f7565b005b6102f360048036038101906102ee91906129f6565b6107f9565b6040516103009190612a36565b60405180910390f35b610323600480360381019061031e9190612a51565b6108a2565b005b61033f600480360381019061033a9190612779565b6108c2565b60405161034c9190612a36565b60405180910390f35b61036f600480360381019061036a9190612bd9565b610938565b005b61038b60048036038101906103869190612c4e565b610953565b6040516103989190612a36565b60405180910390f35b6103bb60048036038101906103b69190612ca1565b6109e3565b6040516103c89190612d8c565b60405180910390f35b6103eb60048036038101906103e69190612779565b610a8b565b6040516103f891906129af565b60405180910390f35b610409610a9d565b604051610416919061294c565b60405180910390f35b61043960048036038101906104349190612ca1565b610b2b565b6040516104469190612a36565b60405180910390f35b610457610be5565b005b610461610bf9565b005b61046b610c88565b6040516104789190612f2c565b60405180910390f35b61049b60048036038101906104969190612ca1565b610e0c565b6040516104a9929190613010565b60405180910390f35b6104ba610f40565b6040516104c791906129af565b60405180910390f35b6104d8610f69565b6040516104e5919061294c565b60405180910390f35b61050860048036038101906105039190612ca1565b610ffb565b005b610524600480360381019061051f9190613073565b61105e565b005b610540600480360381019061053b9190613154565b611074565b005b61055c60048036038101906105579190612779565b611099565b604051610569919061294c565b60405180910390f35b61057a611103565b60405161058791906129af565b60405180910390f35b6105aa60048036038101906105a591906131d7565b61112d565b6040516105b791906128a1565b60405180910390f35b6105da60048036038101906105d59190612ca1565b6111c1565b005b600f6020528060005260406000206000915090508060000160009054906101000a900467ffffffffffffffff16908060010154905082565b600061061f8261126e565b9050919050565b60606002805461063590613246565b80601f016020809104026020016040519081016040528092919081815260200182805461066190613246565b80156106ae5780601f10610683576101008083540402835291602001916106ae565b820191906000526020600020905b81548152906001019060200180831161069157829003601f168201915b5050505050905090565b60006106c3826112cf565b506106cd82611357565b9050919050565b6106e682826106e1611394565b61139c565b5050565b6000600a80549050905090565b600073ffffffffffffffffffffffffffffffffffffffff168273ffffffffffffffffffffffffffffffffffffffff16036107695760006040517f64a0ae9200000000000000000000000000000000000000000000000000000000815260040161076091906129af565b60405180910390fd5b600061077d8383610778611394565b6113ae565b90508373ffffffffffffffffffffffffffffffffffffffff168173ffffffffffffffffffffffffffffffffffffffff16146107f3578382826040517f64283d7b0000000000000000000000000000000000000000000000000000000081526004016107ea93929190613277565b60405180910390fd5b50505050565b600061080483610b2b565b82106108495782826040517fa57d13dc0000000000000000000000000000000000000000000000000000000081526004016108409291906132ae565b60405180910390fd5b600860008473ffffffffffffffffffffffffffffffffffffffff1673ffffffffffffffffffffffffffffffffffffffff168152602001908152602001600020600083815260200190815260200160002054905092915050565b6108bd83838360405180602001604052806000815250611074565b505050565b60006108cc6106ea565b8210610912576000826040517fa57d13dc0000000000000000000000000000000000000000000000000000000081526004016109099291906132ae565b60405180910390fd5b600a8281548110610926576109256132d7565b5b90600052602060002001549050919050565b6109406113c4565b80600e908161094f91906134b2565b5050565b600061095d6113c4565b60006109688561144b565b905060405180604001604052808567ffffffffffffffff16815260200184815250600f600083815260200190815260200160002060008201518160000160006101000a81548167ffffffffffffffff021916908367ffffffffffffffff16021790555060208201518160010155905050809150509392505050565b606060006109f083610b2b565b905060008167ffffffffffffffff811115610a0e57610a0d612aae565b5b604051908082528060200260200182016040528015610a3c5781602001602082028036833780820191505090505b50905060005b82811015610a8057610a5485826107f9565b828281518110610a6757610a666132d7565b5b6020026020010181815250508080600101915050610a42565b508092505050919050565b6000610a96826112cf565b9050919050565b600e8054610aaa90613246565b80601f0160208091040260200160405190810160405280929190818152602001828054610ad690613246565b8015610b235780601f10610af857610100808354040283529160200191610b23565b820191906000526020600020905b815481529060010190602001808311610b0657829003601f168201915b505050505081565b60008073ffffffffffffffffffffffffffffffffffffffff168273ffffffffffffffffffffffffffffffffffffffff1603610b9e5760006040517f89c62b64000000000000000000000000000000000000000000000000000000008152600401610b9591906129af565b60405180910390fd5b600560008373ffffffffffffffffffffffffffffffffffffffff1673ffffffffffffffffffffffffffffffffffffffff168152602001908152602001600020549050919050565b610bed6113c4565b610bf76000611478565b565b6000610c03611394565b90508073ffffffffffffffffffffffffffffffffffffffff16610c24611103565b73ffffffffffffffffffffffffffffffffffffffff1614610c7c57806040517f118cdaa7000000000000000000000000000000000000000000000000000000008152600401610c7391906129af565b60405180910390fd5b610c8581611478565b50565b6060600080610c9d610c98611394565b610e0c565b915091506000825167ffffffffffffffff811115610cbe57610cbd612aae565b5b604051908082528060200260200182016040528015610cf757816020015b610ce46126fd565b815260200190600190039081610cdc5790505b50905060005b8351811015610e02576040518060800160405280858381518110610d2457610d236132d7565b5b60200260200101518152602001600f6000878581518110610d4857610d476132d7565b5b6020026020010151815260200190815260200160002060000160009054906101000a900467ffffffffffffffff1667ffffffffffffffff168152602001600f6000878581518110610d9c57610d9b6132d7565b5b60200260200101518152602001908152602001600020600101548152602001848381518110610dce57610dcd6132d7565b5b6020026020010151815250828281518110610dec57610deb6132d7565b5b6020026020010181905250806001019050610cfd565b5080935050505090565b6060806000610e1a84610b2b565b90508067ffffffffffffffff811115610e3657610e35612aae565b5b604051908082528060200260200182016040528015610e645781602001602082028036833780820191505090505b5092508067ffffffffffffffff811115610e8157610e80612aae565b5b604051908082528060200260200182016040528015610eb457816020015b6060815260200190600190039081610e9f5790505b50915060005b81811015610f3957610ecc85826107f9565b848281518110610edf57610ede6132d7565b5b602002602001018181525050610f0e848281518110610f0157610f006132d7565b5b6020026020010151611099565b838281518110610f2157610f206132d7565b5b60200260200101819052508080600101915050610eba565b5050915091565b60008060009054906101000a900473ffffffffffffffffffffffffffffffffffffffff16905090565b606060038054610f7890613246565b80601f0160208091040260200160405190810160405280929190818152602001828054610fa490613246565b8015610ff15780601f10610fc657610100808354040283529160200191610ff1565b820191906000526020600020905b815481529060010190602001808311610fd457829003601f168201915b5050505050905090565b8073ffffffffffffffffffffffffffffffffffffffff166379ba50976040518163ffffffff1660e01b8152600401600060405180830381600087803b15801561104357600080fd5b505af1158015611057573d6000803e3d6000fd5b5050505050565b611070611069611394565b83836114a9565b5050565b61107f8484846106f7565b61109361108a611394565b85858585611618565b50505050565b60606110a4826112cf565b506000600e80546110b490613246565b9050116110d057604051806020016040528060008152506110fc565b600e6110db836117c9565b6040516020016110ec929190613669565b6040516020818303038152906040525b9050919050565b6000600160009054906101000a900473ffffffffffffffffffffffffffffffffffffffff16905090565b6000600760008473ffffffffffffffffffffffffffffffffffffffff1673ffffffffffffffffffffffffffffffffffffffff16815260200190815260200160002060008373ffffffffffffffffffffffffffffffffffffffff1673ffffffffffffffffffffffffffffffffffffffff16815260200190815260200160002060009054906101000a900460ff16905092915050565b6111c96113c4565b80600160006101000a81548173ffffffffffffffffffffffffffffffffffffffff021916908373ffffffffffffffffffffffffffffffffffffffff1602179055508073ffffffffffffffffffffffffffffffffffffffff16611229610f40565b73ffffffffffffffffffffffffffffffffffffffff167f38d16b8cac22d99fc7c124b9cd0de2d3fa1faef420bfe791d8c362d765e2270060405160405180910390a350565b6000634906490660e01b7bffffffffffffffffffffffffffffffffffffffffffffffffffffffff1916827bffffffffffffffffffffffffffffffffffffffffffffffffffffffff191614806112c857506112c782611897565b5b9050919050565b6000806112db83611911565b9050600073ffffffffffffffffffffffffffffffffffffffff168173ffffffffffffffffffffffffffffffffffffffff160361134e57826040517f7e2732890000000000000000000000000000000000000000000000000000000081526004016113459190612a36565b60405180910390fd5b80915050919050565b60006006600083815260200190815260200160002060009054906101000a900473ffffffffffffffffffffffffffffffffffffffff169050919050565b600033905090565b6113a9838383600161194e565b505050565b60006113bb848484611b13565b90509392505050565b6113cc611394565b73ffffffffffffffffffffffffffffffffffffffff166113ea610f40565b73ffffffffffffffffffffffffffffffffffffffff16146114495761140d611394565b6040517f118cdaa700000000000000000000000000000000000000000000000000000000815260040161144091906129af565b60405180910390fd5b565b600080600d6000815461145d906136cb565b919050819055905061146f8382611c30565b80915050919050565b600160006101000a81549073ffffffffffffffffffffffffffffffffffffffff02191690556114a681611c4e565b50565b600073ffffffffffffffffffffffffffffffffffffffff168273ffffffffffffffffffffffffffffffffffffffff160361151a57816040517f5b08ba1800000000000000000000000000000000000000000000000000000000815260040161151191906129af565b60405180910390fd5b80600760008573ffffffffffffffffffffffffffffffffffffffff1673ffffffffffffffffffffffffffffffffffffffff16815260200190815260200160002060008473ffffffffffffffffffffffffffffffffffffffff1673ffffffffffffffffffffffffffffffffffffffff16815260200190815260200160002060006101000a81548160ff0219169083151502179055508173ffffffffffffffffffffffffffffffffffffffff168373ffffffffffffffffffffffffffffffffffffffff167f17307eab39ab6107e8899845ad3d59bd9653f200f220920489ca2b5937696c318360405161160b91906128a1565b60405180910390a3505050565b60008373ffffffffffffffffffffffffffffffffffffffff163b11156117c2578273ffffffffffffffffffffffffffffffffffffffff1663150b7a02868685856040518563ffffffff1660e01b81526004016116779493929190613768565b6020604051808303816000875af19250505080156116b357506040513d601f19601f820116820180604052508101906116b091906137c9565b60015b611737573d80600081146116e3576040519150601f19603f3d011682016040523d82523d6000602084013e6116e8565b606091505b50600081510361172f57836040517f64a0ae9200000000000000000000000000000000000000000000000000000000815260040161172691906129af565b60405180910390fd5b805181602001fd5b63150b7a0260e01b7bffffffffffffffffffffffffffffffffffffffffffffffffffffffff1916817bffffffffffffffffffffffffffffffffffffffffffffffffffffffff1916146117c057836040517f64a0ae920000000000000000000000000000000000000000000000000000000081526004016117b791906129af565b60405180910390fd5b505b5050505050565b6060600060016117d884611d12565b01905060008167ffffffffffffffff8111156117f7576117f6612aae565b5b6040519080825280601f01601f1916602001820160405280156118295781602001600182028036833780820191505090505b509050600082602001820190505b60011561188c578080600190039150507f3031323334353637383961626364656600000000000000000000000000000000600a86061a8153600a85816118805761187f6137f6565b5b04945060008503611837575b819350505050919050565b60007f780e9d63000000000000000000000000000000000000000000000000000000007bffffffffffffffffffffffffffffffffffffffffffffffffffffffff1916827bffffffffffffffffffffffffffffffffffffffffffffffffffffffff1916148061190a575061190982611e65565b5b9050919050565b60006004600083815260200190815260200160002060009054906101000a900473ffffffffffffffffffffffffffffffffffffffff169050919050565b80806119875750600073ffffffffffffffffffffffffffffffffffffffff168273ffffffffffffffffffffffffffffffffffffffff1614155b15611abb576000611997846112cf565b9050600073ffffffffffffffffffffffffffffffffffffffff168373ffffffffffffffffffffffffffffffffffffffff1614158015611a0257508273ffffffffffffffffffffffffffffffffffffffff168173ffffffffffffffffffffffffffffffffffffffff1614155b8015611a155750611a13818461112d565b155b15611a5757826040517fa9fbf51f000000000000000000000000000000000000000000000000000000008152600401611a4e91906129af565b60405180910390fd5b8115611ab957838573ffffffffffffffffffffffffffffffffffffffff168273ffffffffffffffffffffffffffffffffffffffff167f8c5be1e5ebec7d5bd14f71427d1e84f3dd0314c0f7b2291e5b200ac8c7c3b92560405160405180910390a45b505b836006600085815260200190815260200160002060006101000a81548173ffffffffffffffffffffffffffffffffffffffff021916908373ffffffffffffffffffffffffffffffffffffffff16021790555050505050565b600080611b21858585611f47565b9050600073ffffffffffffffffffffffffffffffffffffffff168173ffffffffffffffffffffffffffffffffffffffff1603611b6557611b6084612161565b611ba4565b8473ffffffffffffffffffffffffffffffffffffffff168173ffffffffffffffffffffffffffffffffffffffff1614611ba357611ba281856121aa565b5b5b600073ffffffffffffffffffffffffffffffffffffffff168573ffffffffffffffffffffffffffffffffffffffff1603611be657611be184612295565b611c25565b8473ffffffffffffffffffffffffffffffffffffffff168173ffffffffffffffffffffffffffffffffffffffff1614611c2457611c238585612366565b5b5b809150509392505050565b611c4a8282604051806020016040528060008152506123f1565b5050565b60008060009054906101000a900473ffffffffffffffffffffffffffffffffffffffff169050816000806101000a81548173ffffffffffffffffffffffffffffffffffffffff021916908373ffffffffffffffffffffffffffffffffffffffff1602179055508173ffffffffffffffffffffffffffffffffffffffff168173ffffffffffffffffffffffffffffffffffffffff167f8be0079c531659141344cd1fd0a4f28419497f9722a3daafe3b4186f6b6457e060405160405180910390a35050565b600080600090507a184f03e93ff9f4daa797ed6e38ed64bf6a1f0100000000000000008310611d70577a184f03e93ff9f4daa797ed6e38ed64bf6a1f0100000000000000008381611d6657611d656137f6565b5b0492506040810190505b6d04ee2d6d415b85acef81000000008310611dad576d04ee2d6d415b85acef81000000008381611da357611da26137f6565b5b0492506020810190505b662386f26fc100008310611ddc57662386f26fc100008381611dd257611dd16137f6565b5b0492506010810190505b6305f5e1008310611e05576305f5e1008381611dfb57611dfa6137f6565b5b0492506008810190505b6127108310611e2a576127108381611e2057611e1f6137f6565b5b0492506004810190505b60648310611e4d5760648381611e4357611e426137f6565b5b0492506002810190505b600a8310611e5c576001810190505b80915050919050565b60007f80ac58cd000000000000000000000000000000000000000000000000000000007bffffffffffffffffffffffffffffffffffffffffffffffffffffffff1916827bffffffffffffffffffffffffffffffffffffffffffffffffffffffff19161480611f3057507f5b5e139f000000000000000000000000000000000000000000000000000000007bffffffffffffffffffffffffffffffffffffffffffffffffffffffff1916827bffffffffffffffffffffffffffffffffffffffffffffffffffffffff1916145b80611f405750611f3f82612415565b5b9050919050565b600080611f5384611911565b9050600073ffffffffffffffffffffffffffffffffffffffff168373ffffffffffffffffffffffffffffffffffffffff1614611f9557611f9481848661247f565b5b600073ffffffffffffffffffffffffffffffffffffffff168173ffffffffffffffffffffffffffffffffffffffff161461202657611fd760008560008061194e565b6001600560008373ffffffffffffffffffffffffffffffffffffffff1673ffffffffffffffffffffffffffffffffffffffff168152602001908152602001600020600082825403925050819055505b600073ffffffffffffffffffffffffffffffffffffffff168573ffffffffffffffffffffffffffffffffffffffff16146120a9576001600560008773ffffffffffffffffffffffffffffffffffffffff1673ffffffffffffffffffffffffffffffffffffffff168152602001908152602001600020600082825401925050819055505b846004600086815260200190815260200160002060006101000a81548173ffffffffffffffffffffffffffffffffffffffff021916908373ffffffffffffffffffffffffffffffffffffffff160217905550838573ffffffffffffffffffffffffffffffffffffffff168273ffffffffffffffffffffffffffffffffffffffff167fddf252ad1be2c89b69c2b068fc378daa952ba7f163c4a11628f55a4df523b3ef60405160405180910390a4809150509392505050565b600a80549050600b600083815260200190815260200160002081905550600a81908060018154018082558091505060019003906000526020600020016000909190919091505550565b60006121b583610b2b565b90506000600960008481526020019081526020016000205490506000600860008673ffffffffffffffffffffffffffffffffffffffff1673ffffffffffffffffffffffffffffffffffffffff16815260200190815260200160002090508282146122615760008160008581526020019081526020016000205490508082600085815260200190815260200160002081905550826009600083815260200190815260200160002081905550505b6009600085815260200190815260200160002060009055806000848152602001908152602001600020600090555050505050565b60006001600a805490506122a99190613825565b90506000600b60008481526020019081526020016000205490506000600a83815481106122d9576122d86132d7565b5b9060005260206000200154905080600a83815481106122fb576122fa6132d7565b5b906000526020600020018190555081600b600083815260200190815260200160002081905550600b600085815260200190815260200160002060009055600a80548061234a57612349613859565b5b6001900381819060005260206000200160009055905550505050565b6000600161237384610b2b565b61237d9190613825565b905081600860008573ffffffffffffffffffffffffffffffffffffffff1673ffffffffffffffffffffffffffffffffffffffff168152602001908152602001600020600083815260200190815260200160002081905550806009600084815260200190815260200160002081905550505050565b6123fb8383612543565b612410612406611394565b6000858585611618565b505050565b60007f01ffc9a7000000000000000000000000000000000000000000000000000000007bffffffffffffffffffffffffffffffffffffffffffffffffffffffff1916827bffffffffffffffffffffffffffffffffffffffffffffffffffffffff1916149050919050565b61248a83838361263c565b61253e57600073ffffffffffffffffffffffffffffffffffffffff168373ffffffffffffffffffffffffffffffffffffffff16036124ff57806040517f7e2732890000000000000000000000000000000000000000000000000000000081526004016124f69190612a36565b60405180910390fd5b81816040517f177e802f0000000000000000000000000000000000000000000000000000000081526004016125359291906132ae565b60405180910390fd5b505050565b600073ffffffffffffffffffffffffffffffffffffffff168273ffffffffffffffffffffffffffffffffffffffff16036125b55760006040517f64a0ae920000000000000000000000000000000000000000000000000000000081526004016125ac91906129af565b60405180910390fd5b60006125c3838360006113ae565b9050600073ffffffffffffffffffffffffffffffffffffffff168173ffffffffffffffffffffffffffffffffffffffff16146126375760006040517f73c6ac6e00000000000000000000000000000000000000000000000000000000815260040161262e91906129af565b60405180910390fd5b505050565b60008073ffffffffffffffffffffffffffffffffffffffff168373ffffffffffffffffffffffffffffffffffffffff16141580156126f457508273ffffffffffffffffffffffffffffffffffffffff168473ffffffffffffffffffffffffffffffffffffffff1614806126b557506126b4848461112d565b5b806126f357508273ffffffffffffffffffffffffffffffffffffffff166126db83611357565b73ffffffffffffffffffffffffffffffffffffffff16145b5b90509392505050565b604051806080016040528060008152602001600067ffffffffffffffff16815260200160008152602001606081525090565b6000604051905090565b600080fd5b600080fd5b6000819050919050565b61275681612743565b811461276157600080fd5b50565b6000813590506127738161274d565b92915050565b60006020828403121561278f5761278e612739565b5b600061279d84828501612764565b91505092915050565b600067ffffffffffffffff82169050919050565b6127c3816127a6565b82525050565b6127d281612743565b82525050565b60006040820190506127ed60008301856127ba565b6127fa60208301846127c9565b9392505050565b60007fffffffff0000000000000000000000000000000000000000000000000000000082169050919050565b61283681612801565b811461284157600080fd5b50565b6000813590506128538161282d565b92915050565b60006020828403121561286f5761286e612739565b5b600061287d84828501612844565b91505092915050565b60008115159050919050565b61289b81612886565b82525050565b60006020820190506128b66000830184612892565b92915050565b600081519050919050565b600082825260208201905092915050565b60005b838110156128f65780820151818401526020810190506128db565b60008484015250505050565b6000601f19601f8301169050919050565b600061291e826128bc565b61292881856128c7565b93506129388185602086016128d8565b61294181612902565b840191505092915050565b600060208201905081810360008301526129668184612913565b905092915050565b600073ffffffffffffffffffffffffffffffffffffffff82169050919050565b60006129998261296e565b9050919050565b6129a98161298e565b82525050565b60006020820190506129c460008301846129a0565b92915050565b6129d38161298e565b81146129de57600080fd5b50565b6000813590506129f0816129ca565b92915050565b60008060408385031215612a0d57612a0c612739565b5b6000612a1b858286016129e1565b9250506020612a2c85828601612764565b9150509250929050565b6000602082019050612a4b60008301846127c9565b92915050565b600080600060608486031215612a6a57612a69612739565b5b6000612a78868287016129e1565b9350506020612a89868287016129e1565b9250506040612a9a86828701612764565b9150509250925092565b600080fd5b600080fd5b7f4e487b7100000000000000000000000000000000000000000000000000000000600052604160045260246000fd5b612ae682612902565b810181811067ffffffffffffffff82111715612b0557612b04612aae565b5b80604052505050565b6000612b1861272f565b9050612b248282612add565b919050565b600067ffffffffffffffff821115612b4457612b43612aae565b5b612b4d82612902565b9050602081019050919050565b82818337600083830152505050565b6000612b7c612b7784612b29565b612b0e565b905082815260208101848484011115612b9857612b97612aa9565b5b612ba3848285612b5a565b509392505050565b600082601f830112612bc057612bbf612aa4565b5b8135612bd0848260208601612b69565b91505092915050565b600060208284031215612bef57612bee612739565b5b600082013567ffffffffffffffff811115612c0d57612c0c61273e565b5b612c1984828501612bab565b91505092915050565b612c2b816127a6565b8114612c3657600080fd5b50565b600081359050612c4881612c22565b92915050565b600080600060608486031215612c6757612c66612739565b5b6000612c75868287016129e1565b9350506020612c8686828701612c39565b9250506040612c9786828701612764565b9150509250925092565b600060208284031215612cb757612cb6612739565b5b6000612cc5848285016129e1565b91505092915050565b600081519050919050565b600082825260208201905092915050565b6000819050602082019050919050565b612d0381612743565b82525050565b6000612d158383612cfa565b60208301905092915050565b6000602082019050919050565b6000612d3982612cce565b612d438185612cd9565b9350612d4e83612cea565b8060005b83811015612d7f578151612d668882612d09565b9750612d7183612d21565b925050600181019050612d52565b5085935050505092915050565b60006020820190508181036000830152612da68184612d2e565b905092915050565b600081519050919050565b600082825260208201905092915050565b6000819050602082019050919050565b612de3816127a6565b82525050565b600082825260208201905092915050565b6000612e05826128bc565b612e0f8185612de9565b9350612e1f8185602086016128d8565b612e2881612902565b840191505092915050565b6000608083016000830151612e4b6000860182612cfa565b506020830151612e5e6020860182612dda565b506040830151612e716040860182612cfa565b5060608301518482036060860152612e898282612dfa565b9150508091505092915050565b6000612ea28383612e33565b905092915050565b6000602082019050919050565b6000612ec282612dae565b612ecc8185612db9565b935083602082028501612ede85612dca565b8060005b85811015612f1a5784840389528151612efb8582612e96565b9450612f0683612eaa565b925060208a01995050600181019050612ee2565b50829750879550505050505092915050565b60006020820190508181036000830152612f468184612eb7565b905092915050565b600081519050919050565b600082825260208201905092915050565b6000819050602082019050919050565b6000612f868383612dfa565b905092915050565b6000602082019050919050565b6000612fa682612f4e565b612fb08185612f59565b935083602082028501612fc285612f6a565b8060005b85811015612ffe5784840389528151612fdf8582612f7a565b9450612fea83612f8e565b925060208a01995050600181019050612fc6565b50829750879550505050505092915050565b6000604082019050818103600083015261302a8185612d2e565b9050818103602083015261303e8184612f9b565b90509392505050565b61305081612886565b811461305b57600080fd5b50565b60008135905061306d81613047565b92915050565b6000806040838503121561308a57613089612739565b5b6000613098858286016129e1565b92505060206130a98582860161305e565b9150509250929050565b600067ffffffffffffffff8211156130ce576130cd612aae565b5b6130d782612902565b9050602081019050919050565b60006130f76130f2846130b3565b612b0e565b90508281526020810184848401111561311357613112612aa9565b5b61311e848285612b5a565b509392505050565b600082601f83011261313b5761313a612aa4565b5b813561314b8482602086016130e4565b91505092915050565b6000806000806080858703121561316e5761316d612739565b5b600061317c878288016129e1565b945050602061318d878288016129e1565b935050604061319e87828801612764565b925050606085013567ffffffffffffffff8111156131bf576131be61273e565b5b6131cb87828801613126565b91505092959194509250565b600080604083850312156131ee576131ed612739565b5b60006131fc858286016129e1565b925050602061320d858286016129e1565b9150509250929050565b7f4e487b7100000000000000000000000000000000000000000000000000000000600052602260045260246000fd5b6000600282049050600182168061325e57607f821691505b60208210810361327157613270613217565b5b50919050565b600060608201905061328c60008301866129a0565b61329960208301856127c9565b6132a660408301846129a0565b949350505050565b60006040820190506132c360008301856129a0565b6132d060208301846127c9565b9392505050565b7f4e487b7100000000000000000000000000000000000000000000000000000000600052603260045260246000fd5b60008190508160005260206000209050919050565b60006020601f8301049050919050565b600082821b905092915050565b6000600883026133687fffffffffffffffffffffffffffffffffffffffffffffffffffffffffffffffff8261332b565b613372868361332b565b95508019841693508086168417925050509392505050565b6000819050919050565b60006133af6133aa6133a584612743565b61338a565b612743565b9050919050565b6000819050919050565b6133c983613394565b6133dd6133d5826133b6565b848454613338565b825550505050565b600090565b6133f26133e5565b6133fd8184846133c0565b505050565b5b81811015613421576134166000826133ea565b600181019050613403565b5050565b601f8211156134665761343781613306565b6134408461331b565b8101602085101561344f578190505b61346361345b8561331b565b830182613402565b50505b505050565b600082821c905092915050565b60006134896000198460080261346b565b1980831691505092915050565b60006134a28383613478565b9150826002028217905092915050565b6134bb826128bc565b67ffffffffffffffff8111156134d4576134d3612aae565b5b6134de8254613246565b6134e9828285613425565b600060209050601f83116001811461351c576000841561350a578287015190505b6135148582613496565b86555061357c565b601f19841661352a86613306565b60005b828110156135525784890151825560018201915060208501945060208101905061352d565b8683101561356f578489015161356b601f891682613478565b8355505b6001600288020188555050505b505050505050565b600081905092915050565b6000815461359c81613246565b6135a68186613584565b945060018216600081146135c157600181146135d657613609565b60ff1983168652811515820286019350613609565b6135df85613306565b60005b83811015613601578154818901526001820191506020810190506135e2565b838801955050505b50505092915050565b7f3f69643d00000000000000000000000000000000000000000000000000000000815250565b6000613643826128bc565b61364d8185613584565b935061365d8185602086016128d8565b80840191505092915050565b6000613675828561358f565b915061368082613612565b6004820191506136908284613638565b91508190509392505050565b7f4e487b7100000000000000000000000000000000000000000000000000000000600052601160045260246000fd5b60006136d682612743565b91507fffffffffffffffffffffffffffffffffffffffffffffffffffffffffffffffff82036137085761370761369c565b5b600182019050919050565b600081519050919050565b600082825260208201905092915050565b600061373a82613713565b613744818561371e565b93506137548185602086016128d8565b61375d81612902565b840191505092915050565b600060808201905061377d60008301876129a0565b61378a60208301866129a0565b61379760408301856127c9565b81810360608301526137a9818461372f565b905095945050505050565b6000815190506137c38161282d565b92915050565b6000602082840312156137df576137de612739565b5b60006137ed848285016137b4565b91505092915050565b7f4e487b7100000000000000000000000000000000000000000000000000000000600052601260045260246000fd5b600061383082612743565b915061383b83612743565b92508282039050818111156138535761385261369c565b5b92915050565b7f4e487b7100000000000000000000000000000000000000000000000000000000600052603160045260246000fdfea26469706673582212208670dbdcec42d0acd0919152266d458da06b34695172872a5f68625f4594c16f64736f6c634300081c0033",
  "linkReferences": {},
  "deployedLinkReferences": {}
}