{
  "_format": "hh-sol-artifact-1",
  "contractName": "YDC_DAO",
  "sourceName": "contracts/YDC_DAO.sol",
  "abi": [
    {
      "inputs": [],
      "stateMutability": "nonpayable",
      "type": "constructor"
    },
    {
      "inputs": [
        {
          "internalType": "address",
          "name": "sender",
          "type": "address"
        },
        {
          "internalType": "uint64",
          "name": "proposalId",
          "type": "uint64"
        }
      ],
      "name": "Error_Executed",
      "type": "error"
    },
    {
      "inputs": [
        {
          "internalType": "address",
          "name": "sender",
          "type": "address"
        },
        {
          "internalType": "uint64",
          "name": "proposalId",
          "type": "uint64"
        }
      ],
      "name": "Error_ExecutionFailed",
      "type": "error"
    },
    {
      "inputs": [
        {
          "internalType": "address",
          "name": "sender",
          "type": "address"
        },
        {
          "internalType": "uint64",
          "name": "proposalId",
          "type": "uint64"
        },
        {
          "internalType": "uint256",
          "name": "deadlineAt",
          "type": "uint256"
        }
      ],
      "name": "Error_HasEnded",
      "type": "error"
    },
    {
      "inputs": [
        {
          "internalType": "address",
          "name": "sender",
          "type": "address"
        },
        {
          "internalType": "uint64",
          "name": "proposalId",
          "type": "uint64"
        },
        {
          "internalType": "uint256",
          "name": "deadlineAt",
          "type": "uint256"
        }
      ],
      "name": "Error_NoEnded",
      "type": "error"
    },
    {
      "inputs": [
        {
          "internalType": "address",
          "name": "sender",
          "type": "address"
        }
      ],
      "name": "Error_NoProposeRights",
      "type": "error"
    },
    {
      "inputs": [
        {
          "internalType": "address",
          "name": "sender",
          "type": "address"
        },
        {
          "internalType": "uint64",
          "name": "proposalId",
          "type": "uint64"
        }
      ],
      "name": "Error_NoVotingRights",
      "type": "error"
    },
    {
      "inputs": [
        {
          "internalType": "address",
          "name": "sender",
          "type": "address"
        },
        {
          "internalType": "uint64",
          "name": "proposalId",
          "type": "uint64"
        }
      ],
      "name": "Error_NotApproved",
      "type": "error"
    },
    {
      "inputs": [
        {
          "internalType": "address",
          "name": "sender",
          "type": "address"
        },
        {
          "internalType": "uint64",
          "name": "proposalId",
          "type": "uint64"
        }
      ],
      "name": "Error_ProposalNotExist",
      "type": "error"
    },
    {
      "inputs": [
        {
          "internalType": "address",
          "name": "sender",
          "type": "address"
        },
        {
          "internalType": "uint64",
          "name": "proposalId",
          "type": "uint64"
        }
      ],
      "name": "Error_RepeatVoting",
      "type": "error"
    },
    {
      "anonymous": false,
      "inputs": [
        {
          "indexed": true,
          "internalType": "address",
          "name": "sender",
          "type": "address"
        },
        {
          "indexed": false,
          "internalType": "uint64",
          "name": "proposalId",
          "type": "uint64"
        },
        {
          "indexed": false,
          "internalType": "bool",
          "name": "yes",
          "type": "bool"
        },
        {
          "indexed": false,
          "internalType": "uint256",
          "name": "votes",
          "type": "uint256"
        }
      ],
      "name": "Event_Vote",
      "type": "event"
    },
    {
      "inputs": [
        {
          "internalType": "address",
          "name": "target",
          "type": "address"
        }
      ],
      "name": "acceptOwnershipForMe",
      "outputs": [],
      "stateMutability": "nonpayable",
      "type": "function"
    },
    {
      "inputs": [],
      "name": "currentProposalId",
      "outputs": [
        {
          "internalType": "uint64",
          "name": "",
          "type": "uint64"
        }
      ],
      "stateMutability": "view",
      "type": "function"
    },
    {
      "inputs": [
        {
          "internalType": "uint64",
          "name": "proposalId",
          "type": "uint64"
        }
      ],
      "name": "execute",
      "outputs": [],
      "stateMutability": "nonpayable",
      "type": "function"
    },
    {
      "inputs": [
        {
          "internalType": "uint64",
          "name": "head",
          "type": "uint64"
        }
      ],
      "name": "flow",
      "outputs": [
        {
          "components": [
            {
              "internalType": "uint64",
              "name": "id",
              "type": "uint64"
            },
            {
              "internalType": "address",
              "name": "proposer",
              "type": "address"
            },
            {
              "internalType": "address",
              "name": "target",
              "type": "address"
            },
            {
              "internalType": "bytes",
              "name": "action",
              "type": "bytes"
            },
            {
              "internalType": "string",
              "name": "prototype",
              "type": "string"
            },
            {
              "internalType": "string",
              "name": "summary",
              "type": "string"
            },
            {
              "internalType": "uint256",
              "name": "yesVotes",
              "type": "uint256"
            },
            {
              "internalType": "uint256",
              "name": "noVotes",
              "type": "uint256"
            },
            {
              "internalType": "uint256",
              "name": "createdAt",
              "type": "uint256"
            },
            {
              "internalType": "uint256",
              "name": "deadlineAt",
              "type": "uint256"
            }
          ],
          "internalType": "struct YDC_DAO_Proposal[]",
          "name": "",
          "type": "tuple[]"
        }
      ],
      "stateMutability": "view",
      "type": "function"
    },
    {
      "inputs": [
        {
          "internalType": "address",
          "name": "target",
          "type": "address"
        },
        {
          "internalType": "bytes",
          "name": "action",
          "type": "bytes"
        },
        {
          "internalType": "string",
          "name": "prototype",
          "type": "string"
        },
        {
          "internalType": "string",
          "name": "summary",
          "type": "string"
        },
        {
          "internalType": "uint256",
          "name": "deadlineAt",
          "type": "uint256"
        }
      ],
      "name": "initiateProposal",
      "outputs": [
        {
          "internalType": "uint64",
          "name": "",
          "type": "uint64"
        }
      ],
      "stateMutability": "nonpayable",
      "type": "function"
    },
    {
      "inputs": [
        {
          "internalType": "uint64",
          "name": "proposalId",
          "type": "uint64"
        },
        {
          "internalType": "bool",
          "name": "yes",
          "type": "bool"
        }
      ],
      "name": "vote",
      "outputs": [],
      "stateMutability": "nonpayable",
      "type": "function"
    }
  ],
  "bytecode": "0x60806040527349155f5a274fc463e6ef9cefc122b51cd899303e6000806101000a81548173ffffffffffffffffffffffffffffffffffffffff021916908373ffffffffffffffffffffffffffffffffffffffff16021790555060008060146101000a81548167ffffffffffffffff021916908367ffffffffffffffff160217905550348015608c57600080fd5b506121678061009c6000396000f3fe608060405234801561001057600080fd5b50600436106100625760003560e01c80639937e22414610067578063ab0a365414610083578063b590be77146100b3578063c7f21560146100cf578063fad53874146100eb578063feac729d1461011b575b600080fd5b610081600480360381019061007c91906112ae565b610139565b005b61009d6004803603810190610098919061131b565b61019c565b6040516100aa919061160e565b60405180910390f35b6100cd60048036038101906100c8919061131b565b61058d565b005b6100e960048036038101906100e49190611668565b610932565b005b610105600480360381019061010091906118aa565b610dd2565b6040516101129190611988565b60405180910390f35b610123611199565b6040516101309190611988565b60405180910390f35b8073ffffffffffffffffffffffffffffffffffffffff166379ba50976040518163ffffffff1660e01b8152600401600060405180830381600087803b15801561018157600080fd5b505af1158015610195573d6000803e3d6000fd5b5050505050565b60606000600a8367ffffffffffffffff16106101b957600a6101bb565b825b905060008167ffffffffffffffff1667ffffffffffffffff8111156101e3576101e26116b2565b5b60405190808252806020026020018201604052801561021c57816020015b6102096111b3565b8152602001906001900390816102015790505b50905060005b8267ffffffffffffffff168167ffffffffffffffff1610156105825760016000828761024e91906119d2565b67ffffffffffffffff1667ffffffffffffffff168152602001908152602001600020604051806101400160405290816000820160009054906101000a900467ffffffffffffffff1667ffffffffffffffff1667ffffffffffffffff1681526020016000820160089054906101000a900473ffffffffffffffffffffffffffffffffffffffff1673ffffffffffffffffffffffffffffffffffffffff1673ffffffffffffffffffffffffffffffffffffffff1681526020016001820160009054906101000a900473ffffffffffffffffffffffffffffffffffffffff1673ffffffffffffffffffffffffffffffffffffffff1673ffffffffffffffffffffffffffffffffffffffff16815260200160028201805461036a90611a3d565b80601f016020809104026020016040519081016040528092919081815260200182805461039690611a3d565b80156103e35780601f106103b8576101008083540402835291602001916103e3565b820191906000526020600020905b8154815290600101906020018083116103c657829003601f168201915b505050505081526020016003820180546103fc90611a3d565b80601f016020809104026020016040519081016040528092919081815260200182805461042890611a3d565b80156104755780601f1061044a57610100808354040283529160200191610475565b820191906000526020600020905b81548152906001019060200180831161045857829003601f168201915b5050505050815260200160048201805461048e90611a3d565b80601f01602080910402602001604051908101604052809291908181526020018280546104ba90611a3d565b80156105075780601f106104dc57610100808354040283529160200191610507565b820191906000526020600020905b8154815290600101906020018083116104ea57829003601f168201915b50505050508152602001600582015481526020016006820154815260200160078201548152602001600882015481525050828260018661054791906119d2565b61055191906119d2565b67ffffffffffffffff168151811061056c5761056b611a6e565b5b6020026020010181905250806001019050610222565b508092505050919050565b6000600160008367ffffffffffffffff1667ffffffffffffffff16815260200190815260200160002060000160009054906101000a900467ffffffffffffffff1667ffffffffffffffff160361061b5733816040517e0a17e4000000000000000000000000000000000000000000000000000000008152600401610612929190611aac565b60405180910390fd5b600160008267ffffffffffffffff1667ffffffffffffffff1681526020019081526020016000206008015442116106b7573381600160008467ffffffffffffffff1667ffffffffffffffff168152602001908152602001600020600801546040517ff7e1c99e0000000000000000000000000000000000000000000000000000000081526004016106ae93929190611ae4565b60405180910390fd5b600360008267ffffffffffffffff1667ffffffffffffffff16815260200190815260200160002060009054906101000a900460ff16156107305733816040517fd950562b000000000000000000000000000000000000000000000000000000008152600401610727929190611aac565b60405180910390fd5b600160008267ffffffffffffffff1667ffffffffffffffff16815260200190815260200160002060060154600160008367ffffffffffffffff1667ffffffffffffffff16815260200190815260200160002060050154116107ca5733816040517f2fc081360000000000000000000000000000000000000000000000000000000081526004016107c1929190611aac565b60405180910390fd5b6000600160008367ffffffffffffffff1667ffffffffffffffff16815260200190815260200160002060010160009054906101000a900473ffffffffffffffffffffffffffffffffffffffff1673ffffffffffffffffffffffffffffffffffffffff16600160008467ffffffffffffffff1667ffffffffffffffff1681526020019081526020016000206002016040516108649190611bbe565b6000604051808303816000865af19150503d80600081146108a1576040519150601f19603f3d011682016040523d82523d6000602084013e6108a6565b606091505b50509050806108ee5733826040517f5acebf540000000000000000000000000000000000000000000000000000000081526004016108e5929190611aac565b60405180910390fd5b6001600360008467ffffffffffffffff1667ffffffffffffffff16815260200190815260200160002060006101000a81548160ff0219169083151502179055505050565b6000600160008467ffffffffffffffff1667ffffffffffffffff16815260200190815260200160002060000160009054906101000a900467ffffffffffffffff1667ffffffffffffffff16036109c05733826040517e0a17e40000000000000000000000000000000000000000000000000000000081526004016109b7929190611aac565b60405180910390fd5b600160008367ffffffffffffffff1667ffffffffffffffff16815260200190815260200160002060080154421115610a5d573382600160008567ffffffffffffffff1667ffffffffffffffff168152602001908152602001600020600801546040517f9da6187b000000000000000000000000000000000000000000000000000000008152600401610a5493929190611ae4565b60405180910390fd5b60008060009054906101000a900473ffffffffffffffffffffffffffffffffffffffff1673ffffffffffffffffffffffffffffffffffffffff1663693ec85e6040518163ffffffff1660e01b8152600401610ab790611c32565b602060405180830381865afa158015610ad4573d6000803e3d6000fd5b505050506040513d601f19601f82011682018060405250810190610af89190611c67565b73ffffffffffffffffffffffffffffffffffffffff166370a08231336040518263ffffffff1660e01b8152600401610b309190611c94565b602060405180830381865afa158015610b4d573d6000803e3d6000fd5b505050506040513d601f19601f82011682018060405250810190610b719190611cc4565b905060008103610bba5733836040517f82bd762a000000000000000000000000000000000000000000000000000000008152600401610bb1929190611aac565b60405180910390fd5b600260008467ffffffffffffffff1667ffffffffffffffff16815260200190815260200160002060003373ffffffffffffffffffffffffffffffffffffffff1673ffffffffffffffffffffffffffffffffffffffff16815260200190815260200160002060009054906101000a900460ff1615610c705733836040517fa9d02dec000000000000000000000000000000000000000000000000000000008152600401610c67929190611aac565b60405180910390fd5b8115610cbc5780600160008567ffffffffffffffff1667ffffffffffffffff1681526020019081526020016000206005016000828254610cb09190611cf1565b92505081905550610cfe565b80600160008567ffffffffffffffff1667ffffffffffffffff1681526020019081526020016000206006016000828254610cf69190611cf1565b925050819055505b6001600260008567ffffffffffffffff1667ffffffffffffffff16815260200190815260200160002060003373ffffffffffffffffffffffffffffffffffffffff1673ffffffffffffffffffffffffffffffffffffffff16815260200190815260200160002060006101000a81548160ff0219169083151502179055503373ffffffffffffffffffffffffffffffffffffffff167f3aa2934680c3ca51077783868a53f00d4676e9de6a4bce8f78e6a95d26314102848484604051610dc593929190611d34565b60405180910390a2505050565b60008060008054906101000a900473ffffffffffffffffffffffffffffffffffffffff1673ffffffffffffffffffffffffffffffffffffffff1663693ec85e6040518163ffffffff1660e01b8152600401610e2c90611c32565b602060405180830381865afa158015610e49573d6000803e3d6000fd5b505050506040513d601f19601f82011682018060405250810190610e6d9190611c67565b73ffffffffffffffffffffffffffffffffffffffff166370a08231336040518263ffffffff1660e01b8152600401610ea59190611c94565b602060405180830381865afa158015610ec2573d6000803e3d6000fd5b505050506040513d601f19601f82011682018060405250810190610ee69190611cc4565b905060008103610f2d57336040517f7aec6880000000000000000000000000000000000000000000000000000000008152600401610f249190611c94565b60405180910390fd5b6000601481819054906101000a900467ffffffffffffffff1680929190610f5390611d6b565b91906101000a81548167ffffffffffffffff021916908367ffffffffffffffff16021790555050604051806101400160405280600060149054906101000a900467ffffffffffffffff1667ffffffffffffffff1681526020013373ffffffffffffffffffffffffffffffffffffffff1681526020018873ffffffffffffffffffffffffffffffffffffffff168152602001878152602001868152602001858152602001600081526020016000815260200142815260200184815250600160008060149054906101000a900467ffffffffffffffff1667ffffffffffffffff1667ffffffffffffffff16815260200190815260200160002060008201518160000160006101000a81548167ffffffffffffffff021916908367ffffffffffffffff16021790555060208201518160000160086101000a81548173ffffffffffffffffffffffffffffffffffffffff021916908373ffffffffffffffffffffffffffffffffffffffff16021790555060408201518160010160006101000a81548173ffffffffffffffffffffffffffffffffffffffff021916908373ffffffffffffffffffffffffffffffffffffffff160217905550606082015181600201908161111c9190611f32565b506080820151816003019081611132919061205f565b5060a0820151816004019081611148919061205f565b5060c0820151816005015560e0820151816006015561010082015181600701556101208201518160080155905050600060149054906101000a900467ffffffffffffffff1691505095945050505050565b600060149054906101000a900467ffffffffffffffff1681565b604051806101400160405280600067ffffffffffffffff168152602001600073ffffffffffffffffffffffffffffffffffffffff168152602001600073ffffffffffffffffffffffffffffffffffffffff168152602001606081526020016060815260200160608152602001600081526020016000815260200160008152602001600081525090565b6000604051905090565b600080fd5b600080fd5b600073ffffffffffffffffffffffffffffffffffffffff82169050919050565b600061127b82611250565b9050919050565b61128b81611270565b811461129657600080fd5b50565b6000813590506112a881611282565b92915050565b6000602082840312156112c4576112c3611246565b5b60006112d284828501611299565b91505092915050565b600067ffffffffffffffff82169050919050565b6112f8816112db565b811461130357600080fd5b50565b600081359050611315816112ef565b92915050565b60006020828403121561133157611330611246565b5b600061133f84828501611306565b91505092915050565b600081519050919050565b600082825260208201905092915050565b6000819050602082019050919050565b61137d816112db565b82525050565b61138c81611270565b82525050565b600081519050919050565b600082825260208201905092915050565b60005b838110156113cc5780820151818401526020810190506113b1565b60008484015250505050565b6000601f19601f8301169050919050565b60006113f482611392565b6113fe818561139d565b935061140e8185602086016113ae565b611417816113d8565b840191505092915050565b600081519050919050565b600082825260208201905092915050565b600061144982611422565b611453818561142d565b93506114638185602086016113ae565b61146c816113d8565b840191505092915050565b6000819050919050565b61148a81611477565b82525050565b6000610140830160008301516114a96000860182611374565b5060208301516114bc6020860182611383565b5060408301516114cf6040860182611383565b50606083015184820360608601526114e782826113e9565b91505060808301518482036080860152611501828261143e565b91505060a083015184820360a086015261151b828261143e565b91505060c083015161153060c0860182611481565b5060e083015161154360e0860182611481565b50610100830151611558610100860182611481565b5061012083015161156d610120860182611481565b508091505092915050565b60006115848383611490565b905092915050565b6000602082019050919050565b60006115a482611348565b6115ae8185611353565b9350836020820285016115c085611364565b8060005b858110156115fc57848403895281516115dd8582611578565b94506115e88361158c565b925060208a019950506001810190506115c4565b50829750879550505050505092915050565b600060208201905081810360008301526116288184611599565b905092915050565b60008115159050919050565b61164581611630565b811461165057600080fd5b50565b6000813590506116628161163c565b92915050565b6000806040838503121561167f5761167e611246565b5b600061168d85828601611306565b925050602061169e85828601611653565b9150509250929050565b600080fd5b600080fd5b7f4e487b7100000000000000000000000000000000000000000000000000000000600052604160045260246000fd5b6116ea826113d8565b810181811067ffffffffffffffff82111715611709576117086116b2565b5b80604052505050565b600061171c61123c565b905061172882826116e1565b919050565b600067ffffffffffffffff821115611748576117476116b2565b5b611751826113d8565b9050602081019050919050565b82818337600083830152505050565b600061178061177b8461172d565b611712565b90508281526020810184848401111561179c5761179b6116ad565b5b6117a784828561175e565b509392505050565b600082601f8301126117c4576117c36116a8565b5b81356117d484826020860161176d565b91505092915050565b600067ffffffffffffffff8211156117f8576117f76116b2565b5b611801826113d8565b9050602081019050919050565b600061182161181c846117dd565b611712565b90508281526020810184848401111561183d5761183c6116ad565b5b61184884828561175e565b509392505050565b600082601f830112611865576118646116a8565b5b813561187584826020860161180e565b91505092915050565b61188781611477565b811461189257600080fd5b50565b6000813590506118a48161187e565b92915050565b600080600080600060a086880312156118c6576118c5611246565b5b60006118d488828901611299565b955050602086013567ffffffffffffffff8111156118f5576118f461124b565b5b611901888289016117af565b945050604086013567ffffffffffffffff8111156119225761192161124b565b5b61192e88828901611850565b935050606086013567ffffffffffffffff81111561194f5761194e61124b565b5b61195b88828901611850565b925050608061196c88828901611895565b9150509295509295909350565b611982816112db565b82525050565b600060208201905061199d6000830184611979565b92915050565b7f4e487b7100000000000000000000000000000000000000000000000000000000600052601160045260246000fd5b60006119dd826112db565b91506119e8836112db565b9250828203905067ffffffffffffffff811115611a0857611a076119a3565b5b92915050565b7f4e487b7100000000000000000000000000000000000000000000000000000000600052602260045260246000fd5b60006002820490506001821680611a5557607f821691505b602082108103611a6857611a67611a0e565b5b50919050565b7f4e487b7100000000000000000000000000000000000000000000000000000000600052603260045260246000fd5b611aa681611270565b82525050565b6000604082019050611ac16000830185611a9d565b611ace6020830184611979565b9392505050565b611ade81611477565b82525050565b6000606082019050611af96000830186611a9d565b611b066020830185611979565b611b136040830184611ad5565b949350505050565b600081905092915050565b60008190508160005260206000209050919050565b60008154611b4881611a3d565b611b528186611b1b565b94506001821660008114611b6d5760018114611b8257611bb5565b60ff1983168652811515820286019350611bb5565b611b8b85611b26565b60005b83811015611bad57815481890152600182019150602081019050611b8e565b838801955050505b50505092915050565b6000611bca8284611b3b565b915081905092915050565b600082825260208201905092915050565b7f5944435f546f6b656e0000000000000000000000000000000000000000000000600082015250565b6000611c1c600983611bd5565b9150611c2782611be6565b602082019050919050565b60006020820190508181036000830152611c4b81611c0f565b9050919050565b600081519050611c6181611282565b92915050565b600060208284031215611c7d57611c7c611246565b5b6000611c8b84828501611c52565b91505092915050565b6000602082019050611ca96000830184611a9d565b92915050565b600081519050611cbe8161187e565b92915050565b600060208284031215611cda57611cd9611246565b5b6000611ce884828501611caf565b91505092915050565b6000611cfc82611477565b9150611d0783611477565b9250828201905080821115611d1f57611d1e6119a3565b5b92915050565b611d2e81611630565b82525050565b6000606082019050611d496000830186611979565b611d566020830185611d25565b611d636040830184611ad5565b949350505050565b6000611d76826112db565b915067ffffffffffffffff8203611d9057611d8f6119a3565b5b600182019050919050565b60006020601f8301049050919050565b600082821b905092915050565b600060088302611de87fffffffffffffffffffffffffffffffffffffffffffffffffffffffffffffffff82611dab565b611df28683611dab565b95508019841693508086168417925050509392505050565b6000819050919050565b6000611e2f611e2a611e2584611477565b611e0a565b611477565b9050919050565b6000819050919050565b611e4983611e14565b611e5d611e5582611e36565b848454611db8565b825550505050565b600090565b611e72611e65565b611e7d818484611e40565b505050565b5b81811015611ea157611e96600082611e6a565b600181019050611e83565b5050565b601f821115611ee657611eb781611b26565b611ec084611d9b565b81016020851015611ecf578190505b611ee3611edb85611d9b565b830182611e82565b50505b505050565b600082821c905092915050565b6000611f0960001984600802611eeb565b1980831691505092915050565b6000611f228383611ef8565b9150826002028217905092915050565b611f3b82611392565b67ffffffffffffffff811115611f5457611f536116b2565b5b611f5e8254611a3d565b611f69828285611ea5565b600060209050601f831160018114611f9c5760008415611f8a578287015190505b611f948582611f16565b865550611ffc565b601f198416611faa86611b26565b60005b82811015611fd257848901518255600182019150602085019450602081019050611fad565b86831015611fef5784890151611feb601f891682611ef8565b8355505b6001600288020188555050505b505050505050565b60008190508160005260206000209050919050565b601f82111561205a5761202b81612004565b61203484611d9b565b81016020851015612043578190505b61205761204f85611d9b565b830182611e82565b50505b505050565b61206882611422565b67ffffffffffffffff811115612081576120806116b2565b5b61208b8254611a3d565b612096828285612019565b600060209050601f8311600181146120c957600084156120b7578287015190505b6120c18582611f16565b865550612129565b601f1984166120d786612004565b60005b828110156120ff578489015182556001820191506020850194506020810190506120da565b8683101561211c5784890151612118601f891682611ef8565b8355505b6001600288020188555050505b50505050505056fea2646970667358221220a86721ebfb757b45a7d10ce11853321d8f3d2623faa58a7f7e50d6dee603df7e64736f6c634300081c0033",
  "linkReferences": {},
  "deployedLinkReferences": {}
}