{
  "_format": "hh-sol-artifact-1",
  "contractName": "BaseERC721",
  "sourceName": "contracts/base/BaseERC721.sol",
  "abi": [
    {
      "inputs": [
        {
          "internalType": "string",
          "name": "name_",
          "type": "string"
        },
        {
          "internalType": "string",
          "name": "symbol_",
          "type": "string"
        }
      ],
      "stateMutability": "nonpayable",
      "type": "constructor"
    },
    {
      "inputs": [],
      "name": "ERC721EnumerableForbiddenBatchMint",
      "type": "error"
    },
    {
      "inputs": [
        {
          "internalType": "address",
          "name": "sender",
          "type": "address"
        },
        {
          "internalType": "uint256",
          "name": "tokenId",
          "type": "uint256"
        },
        {
          "internalType": "address",
          "name": "owner",
          "type": "address"
        }
      ],
      "name": "ERC721IncorrectOwner",
      "type": "error"
    },
    {
      "inputs": [
        {
          "internalType": "address",
          "name": "operator",
          "type": "address"
        },
        {
          "internalType": "uint256",
          "name": "tokenId",
          "type": "uint256"
        }
      ],
      "name": "ERC721InsufficientApproval",
      "type": "error"
    },
    {
      "inputs": [
        {
          "internalType": "address",
          "name": "approver",
          "type": "address"
        }
      ],
      "name": "ERC721InvalidApprover",
      "type": "error"
    },
    {
      "inputs": [
        {
          "internalType": "address",
          "name": "operator",
          "type": "address"
        }
      ],
      "name": "ERC721InvalidOperator",
      "type": "error"
    },
    {
      "inputs": [
        {
          "internalType": "address",
          "name": "owner",
          "type": "address"
        }
      ],
      "name": "ERC721InvalidOwner",
      "type": "error"
    },
    {
      "inputs": [
        {
          "internalType": "address",
          "name": "receiver",
          "type": "address"
        }
      ],
      "name": "ERC721InvalidReceiver",
      "type": "error"
    },
    {
      "inputs": [
        {
          "internalType": "address",
          "name": "sender",
          "type": "address"
        }
      ],
      "name": "ERC721InvalidSender",
      "type": "error"
    },
    {
      "inputs": [
        {
          "internalType": "uint256",
          "name": "tokenId",
          "type": "uint256"
        }
      ],
      "name": "ERC721NonexistentToken",
      "type": "error"
    },
    {
      "inputs": [
        {
          "internalType": "address",
          "name": "owner",
          "type": "address"
        },
        {
          "internalType": "uint256",
          "name": "index",
          "type": "uint256"
        }
      ],
      "name": "ERC721OutOfBoundsIndex",
      "type": "error"
    },
    {
      "inputs": [
        {
          "internalType": "address",
          "name": "owner",
          "type": "address"
        }
      ],
      "name": "OwnableInvalidOwner",
      "type": "error"
    },
    {
      "inputs": [
        {
          "internalType": "address",
          "name": "account",
          "type": "address"
        }
      ],
      "name": "OwnableUnauthorizedAccount",
      "type": "error"
    },
    {
      "anonymous": false,
      "inputs": [
        {
          "indexed": true,
          "internalType": "address",
          "name": "owner",
          "type": "address"
        },
        {
          "indexed": true,
          "internalType": "address",
          "name": "approved",
          "type": "address"
        },
        {
          "indexed": true,
          "internalType": "uint256",
          "name": "tokenId",
          "type": "uint256"
        }
      ],
      "name": "Approval",
      "type": "event"
    },
    {
      "anonymous": false,
      "inputs": [
        {
          "indexed": true,
          "internalType": "address",
          "name": "owner",
          "type": "address"
        },
        {
          "indexed": true,
          "internalType": "address",
          "name": "operator",
          "type": "address"
        },
        {
          "indexed": false,
          "internalType": "bool",
          "name": "approved",
          "type": "bool"
        }
      ],
      "name": "ApprovalForAll",
      "type": "event"
    },
    {
      "anonymous": false,
      "inputs": [
        {
          "indexed": false,
          "internalType": "uint256",
          "name": "_fromTokenId",
          "type": "uint256"
        },
        {
          "indexed": false,
          "internalType": "uint256",
          "name": "_toTokenId",
          "type": "uint256"
        }
      ],
      "name": "BatchMetadataUpdate",
      "type": "event"
    },
    {
      "anonymous": false,
      "inputs": [
        {
          "indexed": false,
          "internalType": "uint256",
          "name": "_tokenId",
          "type": "uint256"
        }
      ],
      "name": "MetadataUpdate",
      "type": "event"
    },
    {
      "anonymous": false,
      "inputs": [
        {
          "indexed": true,
          "internalType": "address",
          "name": "previousOwner",
          "type": "address"
        },
        {
          "indexed": true,
          "internalType": "address",
          "name": "newOwner",
          "type": "address"
        }
      ],
      "name": "OwnershipTransferStarted",
      "type": "event"
    },
    {
      "anonymous": false,
      "inputs": [
        {
          "indexed": true,
          "internalType": "address",
          "name": "previousOwner",
          "type": "address"
        },
        {
          "indexed": true,
          "internalType": "address",
          "name": "newOwner",
          "type": "address"
        }
      ],
      "name": "OwnershipTransferred",
      "type": "event"
    },
    {
      "anonymous": false,
      "inputs": [
        {
          "indexed": true,
          "internalType": "address",
          "name": "from",
          "type": "address"
        },
        {
          "indexed": true,
          "internalType": "address",
          "name": "to",
          "type": "address"
        },
        {
          "indexed": true,
          "internalType": "uint256",
          "name": "tokenId",
          "type": "uint256"
        }
      ],
      "name": "Transfer",
      "type": "event"
    },
    {
      "inputs": [],
      "name": "acceptOwnership",
      "outputs": [],
      "stateMutability": "nonpayable",
      "type": "function"
    },
    {
      "inputs": [
        {
          "internalType": "address",
          "name": "target",
          "type": "address"
        }
      ],
      "name": "acceptOwnershipForMe",
      "outputs": [],
      "stateMutability": "nonpayable",
      "type": "function"
    },
    {
      "inputs": [
        {
          "internalType": "address",
          "name": "to",
          "type": "address"
        },
        {
          "internalType": "uint256",
          "name": "tokenId",
          "type": "uint256"
        }
      ],
      "name": "approve",
      "outputs": [],
      "stateMutability": "nonpayable",
      "type": "function"
    },
    {
      "inputs": [
        {
          "internalType": "address",
          "name": "owner",
          "type": "address"
        }
      ],
      "name": "balanceOf",
      "outputs": [
        {
          "internalType": "uint256",
          "name": "",
          "type": "uint256"
        }
      ],
      "stateMutability": "view",
      "type": "function"
    },
    {
      "inputs": [],
      "name": "baseURI",
      "outputs": [
        {
          "internalType": "string",
          "name": "",
          "type": "string"
        }
      ],
      "stateMutability": "view",
      "type": "function"
    },
    {
      "inputs": [
        {
          "internalType": "uint256",
          "name": "tokenId",
          "type": "uint256"
        }
      ],
      "name": "getApproved",
      "outputs": [
        {
          "internalType": "address",
          "name": "",
          "type": "address"
        }
      ],
      "stateMutability": "view",
      "type": "function"
    },
    {
      "inputs": [
        {
          "internalType": "address",
          "name": "owner",
          "type": "address"
        }
      ],
      "name": "getTokensAndURIsOfOwner",
      "outputs": [
        {
          "internalType": "uint256[]",
          "name": "tokenIds",
          "type": "uint256[]"
        },
        {
          "internalType": "string[]",
          "name": "uris",
          "type": "string[]"
        }
      ],
      "stateMutability": "view",
      "type": "function"
    },
    {
      "inputs": [
        {
          "internalType": "address",
          "name": "owner",
          "type": "address"
        }
      ],
      "name": "getTokensOfOwner",
      "outputs": [
        {
          "internalType": "uint256[]",
          "name": "",
          "type": "uint256[]"
        }
      ],
      "stateMutability": "view",
      "type": "function"
    },
    {
      "inputs": [
        {
          "internalType": "address",
          "name": "owner",
          "type": "address"
        },
        {
          "internalType": "address",
          "name": "operator",
          "type": "address"
        }
      ],
      "name": "isApprovedForAll",
      "outputs": [
        {
          "internalType": "bool",
          "name": "",
          "type": "bool"
        }
      ],
      "stateMutability": "view",
      "type": "function"
    },
    {
      "inputs": [],
      "name": "name",
      "outputs": [
        {
          "internalType": "string",
          "name": "",
          "type": "string"
        }
      ],
      "stateMutability": "view",
      "type": "function"
    },
    {
      "inputs": [],
      "name": "owner",
      "outputs": [
        {
          "internalType": "address",
          "name": "",
          "type": "address"
        }
      ],
      "stateMutability": "view",
      "type": "function"
    },
    {
      "inputs": [
        {
          "internalType": "uint256",
          "name": "tokenId",
          "type": "uint256"
        }
      ],
      "name": "ownerOf",
      "outputs": [
        {
          "internalType": "address",
          "name": "",
          "type": "address"
        }
      ],
      "stateMutability": "view",
      "type": "function"
    },
    {
      "inputs": [],
      "name": "pendingOwner",
      "outputs": [
        {
          "internalType": "address",
          "name": "",
          "type": "address"
        }
      ],
      "stateMutability": "view",
      "type": "function"
    },
    {
      "inputs": [],
      "name": "renounceOwnership",
      "outputs": [],
      "stateMutability": "nonpayable",
      "type": "function"
    },
    {
      "inputs": [
        {
          "internalType": "address",
          "name": "from",
          "type": "address"
        },
        {
          "internalType": "address",
          "name": "to",
          "type": "address"
        },
        {
          "internalType": "uint256",
          "name": "tokenId",
          "type": "uint256"
        }
      ],
      "name": "safeTransferFrom",
      "outputs": [],
      "stateMutability": "nonpayable",
      "type": "function"
    },
    {
      "inputs": [
        {
          "internalType": "address",
          "name": "from",
          "type": "address"
        },
        {
          "internalType": "address",
          "name": "to",
          "type": "address"
        },
        {
          "internalType": "uint256",
          "name": "tokenId",
          "type": "uint256"
        },
        {
          "internalType": "bytes",
          "name": "data",
          "type": "bytes"
        }
      ],
      "name": "safeTransferFrom",
      "outputs": [],
      "stateMutability": "nonpayable",
      "type": "function"
    },
    {
      "inputs": [
        {
          "internalType": "address",
          "name": "operator",
          "type": "address"
        },
        {
          "internalType": "bool",
          "name": "approved",
          "type": "bool"
        }
      ],
      "name": "setApprovalForAll",
      "outputs": [],
      "stateMutability": "nonpayable",
      "type": "function"
    },
    {
      "inputs": [
        {
          "internalType": "string",
          "name": "newBaseURI",
          "type": "string"
        }
      ],
      "name": "setBaseURI",
      "outputs": [],
      "stateMutability": "nonpayable",
      "type": "function"
    },
    {
      "inputs": [
        {
          "internalType": "bytes4",
          "name": "interfaceId",
          "type": "bytes4"
        }
      ],
      "name": "supportsInterface",
      "outputs": [
        {
          "internalType": "bool",
          "name": "",
          "type": "bool"
        }
      ],
      "stateMutability": "view",
      "type": "function"
    },
    {
      "inputs": [],
      "name": "symbol",
      "outputs": [
        {
          "internalType": "string",
          "name": "",
          "type": "string"
        }
      ],
      "stateMutability": "view",
      "type": "function"
    },
    {
      "inputs": [
        {
          "internalType": "uint256",
          "name": "index",
          "type": "uint256"
        }
      ],
      "name": "tokenByIndex",
      "outputs": [
        {
          "internalType": "uint256",
          "name": "",
          "type": "uint256"
        }
      ],
      "stateMutability": "view",
      "type": "function"
    },
    {
      "inputs": [
        {
          "internalType": "address",
          "name": "owner",
          "type": "address"
        },
        {
          "internalType": "uint256",
          "name": "index",
          "type": "uint256"
        }
      ],
      "name": "tokenOfOwnerByIndex",
      "outputs": [
        {
          "internalType": "uint256",
          "name": "",
          "type": "uint256"
        }
      ],
      "stateMutability": "view",
      "type": "function"
    },
    {
      "inputs": [
        {
          "internalType": "uint256",
          "name": "tokenId",
          "type": "uint256"
        }
      ],
      "name": "tokenURI",
      "outputs": [
        {
          "internalType": "string",
          "name": "",
          "type": "string"
        }
      ],
      "stateMutability": "view",
      "type": "function"
    },
    {
      "inputs": [],
      "name": "totalSupply",
      "outputs": [
        {
          "internalType": "uint256",
          "name": "",
          "type": "uint256"
        }
      ],
      "stateMutability": "view",
      "type": "function"
    },
    {
      "inputs": [
        {
          "internalType": "address",
          "name": "from",
          "type": "address"
        },
        {
          "internalType": "address",
          "name": "to",
          "type": "address"
        },
        {
          "internalType": "uint256",
          "name": "tokenId",
          "type": "uint256"
        }
      ],
      "name": "transferFrom",
      "outputs": [],
      "stateMutability": "nonpayable",
      "type": "function"
    },
    {
      "inputs": [
        {
          "internalType": "address",
          "name": "newOwner",
          "type": "address"
        }
      ],
      "name": "transferOwnership",
      "outputs": [],
      "stateMutability": "nonpayable",
      "type": "function"
    }
  ],
  "bytecode": "0x608060405234801561001057600080fd5b506040516138ea3803806138ea83398181016040528101906100329190610365565b81816100426100ed60201b60201c565b600073ffffffffffffffffffffffffffffffffffffffff168173ffffffffffffffffffffffffffffffffffffffff16036100b45760006040517f1e4fbdf70000000000000000000000000000000000000000000000000000000081526004016100ab919061041e565b60405180910390fd5b6100c3816100f560201b60201c565b5081600290816100d3919061065a565b5080600390816100e3919061065a565b505050505061072c565b600033905090565b600160006101000a81549073ffffffffffffffffffffffffffffffffffffffff02191690556101298161012c60201b60201c565b50565b60008060009054906101000a900473ffffffffffffffffffffffffffffffffffffffff169050816000806101000a81548173ffffffffffffffffffffffffffffffffffffffff021916908373ffffffffffffffffffffffffffffffffffffffff1602179055508173ffffffffffffffffffffffffffffffffffffffff168173ffffffffffffffffffffffffffffffffffffffff167f8be0079c531659141344cd1fd0a4f28419497f9722a3daafe3b4186f6b6457e060405160405180910390a35050565b6000604051905090565b600080fd5b600080fd5b600080fd5b600080fd5b6000601f19601f8301169050919050565b7f4e487b7100000000000000000000000000000000000000000000000000000000600052604160045260246000fd5b6102578261020e565b810181811067ffffffffffffffff821117156102765761027561021f565b5b80604052505050565b60006102896101f0565b9050610295828261024e565b919050565b600067ffffffffffffffff8211156102b5576102b461021f565b5b6102be8261020e565b9050602081019050919050565b60005b838110156102e95780820151818401526020810190506102ce565b60008484015250505050565b60006103086103038461029a565b61027f565b90508281526020810184848401111561032457610323610209565b5b61032f8482856102cb565b509392505050565b600082601f83011261034c5761034b610204565b5b815161035c8482602086016102f5565b91505092915050565b6000806040838503121561037c5761037b6101fa565b5b600083015167ffffffffffffffff81111561039a576103996101ff565b5b6103a685828601610337565b925050602083015167ffffffffffffffff8111156103c7576103c66101ff565b5b6103d385828601610337565b9150509250929050565b600073ffffffffffffffffffffffffffffffffffffffff82169050919050565b6000610408826103dd565b9050919050565b610418816103fd565b82525050565b6000602082019050610433600083018461040f565b92915050565b600081519050919050565b7f4e487b7100000000000000000000000000000000000000000000000000000000600052602260045260246000fd5b6000600282049050600182168061048b57607f821691505b60208210810361049e5761049d610444565b5b50919050565b60008190508160005260206000209050919050565b60006020601f8301049050919050565b600082821b905092915050565b6000600883026105067fffffffffffffffffffffffffffffffffffffffffffffffffffffffffffffffff826104c9565b61051086836104c9565b95508019841693508086168417925050509392505050565b6000819050919050565b6000819050919050565b600061055761055261054d84610528565b610532565b610528565b9050919050565b6000819050919050565b6105718361053c565b61058561057d8261055e565b8484546104d6565b825550505050565b600090565b61059a61058d565b6105a5818484610568565b505050565b5b818110156105c9576105be600082610592565b6001810190506105ab565b5050565b601f82111561060e576105df816104a4565b6105e8846104b9565b810160208510156105f7578190505b61060b610603856104b9565b8301826105aa565b50505b505050565b600082821c905092915050565b600061063160001984600802610613565b1980831691505092915050565b600061064a8383610620565b9150826002028217905092915050565b61066382610439565b67ffffffffffffffff81111561067c5761067b61021f565b5b6106868254610473565b6106918282856105cd565b600060209050601f8311600181146106c457600084156106b2578287015190505b6106bc858261063e565b865550610724565b601f1984166106d2866104a4565b60005b828110156106fa578489015182556001820191506020850194506020810190506106d5565b868310156107175784890151610713601f891682610620565b8355505b6001600288020188555050505b505050505050565b6131af8061073b6000396000f3fe608060405234801561001057600080fd5b506004361061018e5760003560e01c806370a08231116100de5780639937e22411610097578063c87b56dd11610071578063c87b56dd14610482578063e30c3978146104b2578063e985e9c5146104d0578063f2fde38b146105005761018e565b80639937e2241461042e578063a22cb4651461044a578063b88d4fde146104665761018e565b806370a082311461037d578063715018a6146103ad57806379ba5097146103b75780638c903836146103c15780638da5cb5b146103f257806395d89b41146104105761018e565b80632f745c591161014b57806355f804b31161012557806355f804b3146102e35780635de6dc55146102ff5780636352211e1461032f5780636c0360eb1461035f5761018e565b80632f745c591461026757806342842e0e146102975780634f6ccce7146102b35761018e565b806301ffc9a71461019357806306fdde03146101c3578063081812fc146101e1578063095ea7b31461021157806318160ddd1461022d57806323b872dd1461024b575b600080fd5b6101ad60048036038101906101a891906122f5565b61051c565b6040516101ba919061233d565b60405180910390f35b6101cb61052e565b6040516101d891906123e8565b60405180910390f35b6101fb60048036038101906101f69190612440565b6105c0565b60405161020891906124ae565b60405180910390f35b61022b600480360381019061022691906124f5565b6105dc565b005b6102356105f2565b6040516102429190612544565b60405180910390f35b6102656004803603810190610260919061255f565b6105ff565b005b610281600480360381019061027c91906124f5565b610701565b60405161028e9190612544565b60405180910390f35b6102b160048036038101906102ac919061255f565b6107aa565b005b6102cd60048036038101906102c89190612440565b6107ca565b6040516102da9190612544565b60405180910390f35b6102fd60048036038101906102f891906126e7565b610840565b005b61031960048036038101906103149190612730565b61085b565b604051610326919061281b565b60405180910390f35b61034960048036038101906103449190612440565b610903565b60405161035691906124ae565b60405180910390f35b610367610915565b60405161037491906123e8565b60405180910390f35b61039760048036038101906103929190612730565b6109a3565b6040516103a49190612544565b60405180910390f35b6103b5610a5d565b005b6103bf610a71565b005b6103db60048036038101906103d69190612730565b610b00565b6040516103e9929190612949565b60405180910390f35b6103fa610c34565b60405161040791906124ae565b60405180910390f35b610418610c5d565b60405161042591906123e8565b60405180910390f35b61044860048036038101906104439190612730565b610cef565b005b610464600480360381019061045f91906129ac565b610d52565b005b610480600480360381019061047b9190612a8d565b610d68565b005b61049c60048036038101906104979190612440565b610d8d565b6040516104a991906123e8565b60405180910390f35b6104ba610df7565b6040516104c791906124ae565b60405180910390f35b6104ea60048036038101906104e59190612b10565b610e21565b6040516104f7919061233d565b60405180910390f35b61051a60048036038101906105159190612730565b610eb5565b005b600061052782610f62565b9050919050565b60606002805461053d90612b7f565b80601f016020809104026020016040519081016040528092919081815260200182805461056990612b7f565b80156105b65780601f1061058b576101008083540402835291602001916105b6565b820191906000526020600020905b81548152906001019060200180831161059957829003601f168201915b5050505050905090565b60006105cb82610fc3565b506105d58261104b565b9050919050565b6105ee82826105e9611088565b611090565b5050565b6000600a80549050905090565b600073ffffffffffffffffffffffffffffffffffffffff168273ffffffffffffffffffffffffffffffffffffffff16036106715760006040517f64a0ae9200000000000000000000000000000000000000000000000000000000815260040161066891906124ae565b60405180910390fd5b60006106858383610680611088565b6110a2565b90508373ffffffffffffffffffffffffffffffffffffffff168173ffffffffffffffffffffffffffffffffffffffff16146106fb578382826040517f64283d7b0000000000000000000000000000000000000000000000000000000081526004016106f293929190612bb0565b60405180910390fd5b50505050565b600061070c836109a3565b82106107515782826040517fa57d13dc000000000000000000000000000000000000000000000000000000008152600401610748929190612be7565b60405180910390fd5b600860008473ffffffffffffffffffffffffffffffffffffffff1673ffffffffffffffffffffffffffffffffffffffff168152602001908152602001600020600083815260200190815260200160002054905092915050565b6107c583838360405180602001604052806000815250610d68565b505050565b60006107d46105f2565b821061081a576000826040517fa57d13dc000000000000000000000000000000000000000000000000000000008152600401610811929190612be7565b60405180910390fd5b600a828154811061082e5761082d612c10565b5b90600052602060002001549050919050565b6108486110b8565b80600e90816108579190612deb565b5050565b60606000610868836109a3565b905060008167ffffffffffffffff811115610886576108856125bc565b5b6040519080825280602002602001820160405280156108b45781602001602082028036833780820191505090505b50905060005b828110156108f8576108cc8582610701565b8282815181106108df576108de612c10565b5b60200260200101818152505080806001019150506108ba565b508092505050919050565b600061090e82610fc3565b9050919050565b600e805461092290612b7f565b80601f016020809104026020016040519081016040528092919081815260200182805461094e90612b7f565b801561099b5780601f106109705761010080835404028352916020019161099b565b820191906000526020600020905b81548152906001019060200180831161097e57829003601f168201915b505050505081565b60008073ffffffffffffffffffffffffffffffffffffffff168273ffffffffffffffffffffffffffffffffffffffff1603610a165760006040517f89c62b64000000000000000000000000000000000000000000000000000000008152600401610a0d91906124ae565b60405180910390fd5b600560008373ffffffffffffffffffffffffffffffffffffffff1673ffffffffffffffffffffffffffffffffffffffff168152602001908152602001600020549050919050565b610a656110b8565b610a6f600061113f565b565b6000610a7b611088565b90508073ffffffffffffffffffffffffffffffffffffffff16610a9c610df7565b73ffffffffffffffffffffffffffffffffffffffff1614610af457806040517f118cdaa7000000000000000000000000000000000000000000000000000000008152600401610aeb91906124ae565b60405180910390fd5b610afd8161113f565b50565b6060806000610b0e846109a3565b90508067ffffffffffffffff811115610b2a57610b296125bc565b5b604051908082528060200260200182016040528015610b585781602001602082028036833780820191505090505b5092508067ffffffffffffffff811115610b7557610b746125bc565b5b604051908082528060200260200182016040528015610ba857816020015b6060815260200190600190039081610b935790505b50915060005b81811015610c2d57610bc08582610701565b848281518110610bd357610bd2612c10565b5b602002602001018181525050610c02848281518110610bf557610bf4612c10565b5b6020026020010151610d8d565b838281518110610c1557610c14612c10565b5b60200260200101819052508080600101915050610bae565b5050915091565b60008060009054906101000a900473ffffffffffffffffffffffffffffffffffffffff16905090565b606060038054610c6c90612b7f565b80601f0160208091040260200160405190810160405280929190818152602001828054610c9890612b7f565b8015610ce55780601f10610cba57610100808354040283529160200191610ce5565b820191906000526020600020905b815481529060010190602001808311610cc857829003601f168201915b5050505050905090565b8073ffffffffffffffffffffffffffffffffffffffff166379ba50976040518163ffffffff1660e01b8152600401600060405180830381600087803b158015610d3757600080fd5b505af1158015610d4b573d6000803e3d6000fd5b5050505050565b610d64610d5d611088565b8383611170565b5050565b610d738484846105ff565b610d87610d7e611088565b858585856112df565b50505050565b6060610d9882610fc3565b506000600e8054610da890612b7f565b905011610dc45760405180602001604052806000815250610df0565b600e610dcf83611490565b604051602001610de0929190612fa2565b6040516020818303038152906040525b9050919050565b6000600160009054906101000a900473ffffffffffffffffffffffffffffffffffffffff16905090565b6000600760008473ffffffffffffffffffffffffffffffffffffffff1673ffffffffffffffffffffffffffffffffffffffff16815260200190815260200160002060008373ffffffffffffffffffffffffffffffffffffffff1673ffffffffffffffffffffffffffffffffffffffff16815260200190815260200160002060009054906101000a900460ff16905092915050565b610ebd6110b8565b80600160006101000a81548173ffffffffffffffffffffffffffffffffffffffff021916908373ffffffffffffffffffffffffffffffffffffffff1602179055508073ffffffffffffffffffffffffffffffffffffffff16610f1d610c34565b73ffffffffffffffffffffffffffffffffffffffff167f38d16b8cac22d99fc7c124b9cd0de2d3fa1faef420bfe791d8c362d765e2270060405160405180910390a350565b6000634906490660e01b7bffffffffffffffffffffffffffffffffffffffffffffffffffffffff1916827bffffffffffffffffffffffffffffffffffffffffffffffffffffffff19161480610fbc5750610fbb8261155e565b5b9050919050565b600080610fcf836115d8565b9050600073ffffffffffffffffffffffffffffffffffffffff168173ffffffffffffffffffffffffffffffffffffffff160361104257826040517f7e2732890000000000000000000000000000000000000000000000000000000081526004016110399190612544565b60405180910390fd5b80915050919050565b60006006600083815260200190815260200160002060009054906101000a900473ffffffffffffffffffffffffffffffffffffffff169050919050565b600033905090565b61109d8383836001611615565b505050565b60006110af8484846117da565b90509392505050565b6110c0611088565b73ffffffffffffffffffffffffffffffffffffffff166110de610c34565b73ffffffffffffffffffffffffffffffffffffffff161461113d57611101611088565b6040517f118cdaa700000000000000000000000000000000000000000000000000000000815260040161113491906124ae565b60405180910390fd5b565b600160006101000a81549073ffffffffffffffffffffffffffffffffffffffff021916905561116d816118f7565b50565b600073ffffffffffffffffffffffffffffffffffffffff168273ffffffffffffffffffffffffffffffffffffffff16036111e157816040517f5b08ba180000000000000000000000000000000000000000000000000000000081526004016111d891906124ae565b60405180910390fd5b80600760008573ffffffffffffffffffffffffffffffffffffffff1673ffffffffffffffffffffffffffffffffffffffff16815260200190815260200160002060008473ffffffffffffffffffffffffffffffffffffffff1673ffffffffffffffffffffffffffffffffffffffff16815260200190815260200160002060006101000a81548160ff0219169083151502179055508173ffffffffffffffffffffffffffffffffffffffff168373ffffffffffffffffffffffffffffffffffffffff167f17307eab39ab6107e8899845ad3d59bd9653f200f220920489ca2b5937696c31836040516112d2919061233d565b60405180910390a3505050565b60008373ffffffffffffffffffffffffffffffffffffffff163b1115611489578273ffffffffffffffffffffffffffffffffffffffff1663150b7a02868685856040518563ffffffff1660e01b815260040161133e949392919061302a565b6020604051808303816000875af192505050801561137a57506040513d601f19601f82011682018060405250810190611377919061308b565b60015b6113fe573d80600081146113aa576040519150601f19603f3d011682016040523d82523d6000602084013e6113af565b606091505b5060008151036113f657836040517f64a0ae920000000000000000000000000000000000000000000000000000000081526004016113ed91906124ae565b60405180910390fd5b805181602001fd5b63150b7a0260e01b7bffffffffffffffffffffffffffffffffffffffffffffffffffffffff1916817bffffffffffffffffffffffffffffffffffffffffffffffffffffffff19161461148757836040517f64a0ae9200000000000000000000000000000000000000000000000000000000815260040161147e91906124ae565b60405180910390fd5b505b5050505050565b60606000600161149f846119bb565b01905060008167ffffffffffffffff8111156114be576114bd6125bc565b5b6040519080825280601f01601f1916602001820160405280156114f05781602001600182028036833780820191505090505b509050600082602001820190505b600115611553578080600190039150507f3031323334353637383961626364656600000000000000000000000000000000600a86061a8153600a8581611547576115466130b8565b5b049450600085036114fe575b819350505050919050565b60007f780e9d63000000000000000000000000000000000000000000000000000000007bffffffffffffffffffffffffffffffffffffffffffffffffffffffff1916827bffffffffffffffffffffffffffffffffffffffffffffffffffffffff191614806115d157506115d082611b0e565b5b9050919050565b60006004600083815260200190815260200160002060009054906101000a900473ffffffffffffffffffffffffffffffffffffffff169050919050565b808061164e5750600073ffffffffffffffffffffffffffffffffffffffff168273ffffffffffffffffffffffffffffffffffffffff1614155b1561178257600061165e84610fc3565b9050600073ffffffffffffffffffffffffffffffffffffffff168373ffffffffffffffffffffffffffffffffffffffff16141580156116c957508273ffffffffffffffffffffffffffffffffffffffff168173ffffffffffffffffffffffffffffffffffffffff1614155b80156116dc57506116da8184610e21565b155b1561171e57826040517fa9fbf51f00000000000000000000000000000000000000000000000000000000815260040161171591906124ae565b60405180910390fd5b811561178057838573ffffffffffffffffffffffffffffffffffffffff168273ffffffffffffffffffffffffffffffffffffffff167f8c5be1e5ebec7d5bd14f71427d1e84f3dd0314c0f7b2291e5b200ac8c7c3b92560405160405180910390a45b505b836006600085815260200190815260200160002060006101000a81548173ffffffffffffffffffffffffffffffffffffffff021916908373ffffffffffffffffffffffffffffffffffffffff16021790555050505050565b6000806117e8858585611bf0565b9050600073ffffffffffffffffffffffffffffffffffffffff168173ffffffffffffffffffffffffffffffffffffffff160361182c5761182784611e0a565b61186b565b8473ffffffffffffffffffffffffffffffffffffffff168173ffffffffffffffffffffffffffffffffffffffff161461186a576118698185611e53565b5b5b600073ffffffffffffffffffffffffffffffffffffffff168573ffffffffffffffffffffffffffffffffffffffff16036118ad576118a884611f3e565b6118ec565b8473ffffffffffffffffffffffffffffffffffffffff168173ffffffffffffffffffffffffffffffffffffffff16146118eb576118ea858561200f565b5b5b809150509392505050565b60008060009054906101000a900473ffffffffffffffffffffffffffffffffffffffff169050816000806101000a81548173ffffffffffffffffffffffffffffffffffffffff021916908373ffffffffffffffffffffffffffffffffffffffff1602179055508173ffffffffffffffffffffffffffffffffffffffff168173ffffffffffffffffffffffffffffffffffffffff167f8be0079c531659141344cd1fd0a4f28419497f9722a3daafe3b4186f6b6457e060405160405180910390a35050565b600080600090507a184f03e93ff9f4daa797ed6e38ed64bf6a1f0100000000000000008310611a19577a184f03e93ff9f4daa797ed6e38ed64bf6a1f0100000000000000008381611a0f57611a0e6130b8565b5b0492506040810190505b6d04ee2d6d415b85acef81000000008310611a56576d04ee2d6d415b85acef81000000008381611a4c57611a4b6130b8565b5b0492506020810190505b662386f26fc100008310611a8557662386f26fc100008381611a7b57611a7a6130b8565b5b0492506010810190505b6305f5e1008310611aae576305f5e1008381611aa457611aa36130b8565b5b0492506008810190505b6127108310611ad3576127108381611ac957611ac86130b8565b5b0492506004810190505b60648310611af65760648381611aec57611aeb6130b8565b5b0492506002810190505b600a8310611b05576001810190505b80915050919050565b60007f80ac58cd000000000000000000000000000000000000000000000000000000007bffffffffffffffffffffffffffffffffffffffffffffffffffffffff1916827bffffffffffffffffffffffffffffffffffffffffffffffffffffffff19161480611bd957507f5b5e139f000000000000000000000000000000000000000000000000000000007bffffffffffffffffffffffffffffffffffffffffffffffffffffffff1916827bffffffffffffffffffffffffffffffffffffffffffffffffffffffff1916145b80611be95750611be88261209a565b5b9050919050565b600080611bfc846115d8565b9050600073ffffffffffffffffffffffffffffffffffffffff168373ffffffffffffffffffffffffffffffffffffffff1614611c3e57611c3d818486612104565b5b600073ffffffffffffffffffffffffffffffffffffffff168173ffffffffffffffffffffffffffffffffffffffff1614611ccf57611c80600085600080611615565b6001600560008373ffffffffffffffffffffffffffffffffffffffff1673ffffffffffffffffffffffffffffffffffffffff168152602001908152602001600020600082825403925050819055505b600073ffffffffffffffffffffffffffffffffffffffff168573ffffffffffffffffffffffffffffffffffffffff1614611d52576001600560008773ffffffffffffffffffffffffffffffffffffffff1673ffffffffffffffffffffffffffffffffffffffff168152602001908152602001600020600082825401925050819055505b846004600086815260200190815260200160002060006101000a81548173ffffffffffffffffffffffffffffffffffffffff021916908373ffffffffffffffffffffffffffffffffffffffff160217905550838573ffffffffffffffffffffffffffffffffffffffff168273ffffffffffffffffffffffffffffffffffffffff167fddf252ad1be2c89b69c2b068fc378daa952ba7f163c4a11628f55a4df523b3ef60405160405180910390a4809150509392505050565b600a80549050600b600083815260200190815260200160002081905550600a81908060018154018082558091505060019003906000526020600020016000909190919091505550565b6000611e5e836109a3565b90506000600960008481526020019081526020016000205490506000600860008673ffffffffffffffffffffffffffffffffffffffff1673ffffffffffffffffffffffffffffffffffffffff1681526020019081526020016000209050828214611f0a5760008160008581526020019081526020016000205490508082600085815260200190815260200160002081905550826009600083815260200190815260200160002081905550505b6009600085815260200190815260200160002060009055806000848152602001908152602001600020600090555050505050565b60006001600a80549050611f529190613116565b90506000600b60008481526020019081526020016000205490506000600a8381548110611f8257611f81612c10565b5b9060005260206000200154905080600a8381548110611fa457611fa3612c10565b5b906000526020600020018190555081600b600083815260200190815260200160002081905550600b600085815260200190815260200160002060009055600a805480611ff357611ff261314a565b5b6001900381819060005260206000200160009055905550505050565b6000600161201c846109a3565b6120269190613116565b905081600860008573ffffffffffffffffffffffffffffffffffffffff1673ffffffffffffffffffffffffffffffffffffffff168152602001908152602001600020600083815260200190815260200160002081905550806009600084815260200190815260200160002081905550505050565b60007f01ffc9a7000000000000000000000000000000000000000000000000000000007bffffffffffffffffffffffffffffffffffffffffffffffffffffffff1916827bffffffffffffffffffffffffffffffffffffffffffffffffffffffff1916149050919050565b61210f8383836121c8565b6121c357600073ffffffffffffffffffffffffffffffffffffffff168373ffffffffffffffffffffffffffffffffffffffff160361218457806040517f7e27328900000000000000000000000000000000000000000000000000000000815260040161217b9190612544565b60405180910390fd5b81816040517f177e802f0000000000000000000000000000000000000000000000000000000081526004016121ba929190612be7565b60405180910390fd5b505050565b60008073ffffffffffffffffffffffffffffffffffffffff168373ffffffffffffffffffffffffffffffffffffffff161415801561228057508273ffffffffffffffffffffffffffffffffffffffff168473ffffffffffffffffffffffffffffffffffffffff16148061224157506122408484610e21565b5b8061227f57508273ffffffffffffffffffffffffffffffffffffffff166122678361104b565b73ffffffffffffffffffffffffffffffffffffffff16145b5b90509392505050565b6000604051905090565b600080fd5b600080fd5b60007fffffffff0000000000000000000000000000000000000000000000000000000082169050919050565b6122d28161229d565b81146122dd57600080fd5b50565b6000813590506122ef816122c9565b92915050565b60006020828403121561230b5761230a612293565b5b6000612319848285016122e0565b91505092915050565b60008115159050919050565b61233781612322565b82525050565b6000602082019050612352600083018461232e565b92915050565b600081519050919050565b600082825260208201905092915050565b60005b83811015612392578082015181840152602081019050612377565b60008484015250505050565b6000601f19601f8301169050919050565b60006123ba82612358565b6123c48185612363565b93506123d4818560208601612374565b6123dd8161239e565b840191505092915050565b6000602082019050818103600083015261240281846123af565b905092915050565b6000819050919050565b61241d8161240a565b811461242857600080fd5b50565b60008135905061243a81612414565b92915050565b60006020828403121561245657612455612293565b5b60006124648482850161242b565b91505092915050565b600073ffffffffffffffffffffffffffffffffffffffff82169050919050565b60006124988261246d565b9050919050565b6124a88161248d565b82525050565b60006020820190506124c3600083018461249f565b92915050565b6124d28161248d565b81146124dd57600080fd5b50565b6000813590506124ef816124c9565b92915050565b6000806040838503121561250c5761250b612293565b5b600061251a858286016124e0565b925050602061252b8582860161242b565b9150509250929050565b61253e8161240a565b82525050565b60006020820190506125596000830184612535565b92915050565b60008060006060848603121561257857612577612293565b5b6000612586868287016124e0565b9350506020612597868287016124e0565b92505060406125a88682870161242b565b9150509250925092565b600080fd5b600080fd5b7f4e487b7100000000000000000000000000000000000000000000000000000000600052604160045260246000fd5b6125f48261239e565b810181811067ffffffffffffffff82111715612613576126126125bc565b5b80604052505050565b6000612626612289565b905061263282826125eb565b919050565b600067ffffffffffffffff821115612652576126516125bc565b5b61265b8261239e565b9050602081019050919050565b82818337600083830152505050565b600061268a61268584612637565b61261c565b9050828152602081018484840111156126a6576126a56125b7565b5b6126b1848285612668565b509392505050565b600082601f8301126126ce576126cd6125b2565b5b81356126de848260208601612677565b91505092915050565b6000602082840312156126fd576126fc612293565b5b600082013567ffffffffffffffff81111561271b5761271a612298565b5b612727848285016126b9565b91505092915050565b60006020828403121561274657612745612293565b5b6000612754848285016124e0565b91505092915050565b600081519050919050565b600082825260208201905092915050565b6000819050602082019050919050565b6127928161240a565b82525050565b60006127a48383612789565b60208301905092915050565b6000602082019050919050565b60006127c88261275d565b6127d28185612768565b93506127dd83612779565b8060005b8381101561280e5781516127f58882612798565b9750612800836127b0565b9250506001810190506127e1565b5085935050505092915050565b6000602082019050818103600083015261283581846127bd565b905092915050565b600081519050919050565b600082825260208201905092915050565b6000819050602082019050919050565b600082825260208201905092915050565b600061288582612358565b61288f8185612869565b935061289f818560208601612374565b6128a88161239e565b840191505092915050565b60006128bf838361287a565b905092915050565b6000602082019050919050565b60006128df8261283d565b6128e98185612848565b9350836020820285016128fb85612859565b8060005b85811015612937578484038952815161291885826128b3565b9450612923836128c7565b925060208a019950506001810190506128ff565b50829750879550505050505092915050565b6000604082019050818103600083015261296381856127bd565b9050818103602083015261297781846128d4565b90509392505050565b61298981612322565b811461299457600080fd5b50565b6000813590506129a681612980565b92915050565b600080604083850312156129c3576129c2612293565b5b60006129d1858286016124e0565b92505060206129e285828601612997565b9150509250929050565b600067ffffffffffffffff821115612a0757612a066125bc565b5b612a108261239e565b9050602081019050919050565b6000612a30612a2b846129ec565b61261c565b905082815260208101848484011115612a4c57612a4b6125b7565b5b612a57848285612668565b509392505050565b600082601f830112612a7457612a736125b2565b5b8135612a84848260208601612a1d565b91505092915050565b60008060008060808587031215612aa757612aa6612293565b5b6000612ab5878288016124e0565b9450506020612ac6878288016124e0565b9350506040612ad78782880161242b565b925050606085013567ffffffffffffffff811115612af857612af7612298565b5b612b0487828801612a5f565b91505092959194509250565b60008060408385031215612b2757612b26612293565b5b6000612b35858286016124e0565b9250506020612b46858286016124e0565b9150509250929050565b7f4e487b7100000000000000000000000000000000000000000000000000000000600052602260045260246000fd5b60006002820490506001821680612b9757607f821691505b602082108103612baa57612ba9612b50565b5b50919050565b6000606082019050612bc5600083018661249f565b612bd26020830185612535565b612bdf604083018461249f565b949350505050565b6000604082019050612bfc600083018561249f565b612c096020830184612535565b9392505050565b7f4e487b7100000000000000000000000000000000000000000000000000000000600052603260045260246000fd5b60008190508160005260206000209050919050565b60006020601f8301049050919050565b600082821b905092915050565b600060088302612ca17fffffffffffffffffffffffffffffffffffffffffffffffffffffffffffffffff82612c64565b612cab8683612c64565b95508019841693508086168417925050509392505050565b6000819050919050565b6000612ce8612ce3612cde8461240a565b612cc3565b61240a565b9050919050565b6000819050919050565b612d0283612ccd565b612d16612d0e82612cef565b848454612c71565b825550505050565b600090565b612d2b612d1e565b612d36818484612cf9565b505050565b5b81811015612d5a57612d4f600082612d23565b600181019050612d3c565b5050565b601f821115612d9f57612d7081612c3f565b612d7984612c54565b81016020851015612d88578190505b612d9c612d9485612c54565b830182612d3b565b50505b505050565b600082821c905092915050565b6000612dc260001984600802612da4565b1980831691505092915050565b6000612ddb8383612db1565b9150826002028217905092915050565b612df482612358565b67ffffffffffffffff811115612e0d57612e0c6125bc565b5b612e178254612b7f565b612e22828285612d5e565b600060209050601f831160018114612e555760008415612e43578287015190505b612e4d8582612dcf565b865550612eb5565b601f198416612e6386612c3f565b60005b82811015612e8b57848901518255600182019150602085019450602081019050612e66565b86831015612ea85784890151612ea4601f891682612db1565b8355505b6001600288020188555050505b505050505050565b600081905092915050565b60008154612ed581612b7f565b612edf8186612ebd565b94506001821660008114612efa5760018114612f0f57612f42565b60ff1983168652811515820286019350612f42565b612f1885612c3f565b60005b83811015612f3a57815481890152600182019150602081019050612f1b565b838801955050505b50505092915050565b7f3f69643d00000000000000000000000000000000000000000000000000000000815250565b6000612f7c82612358565b612f868185612ebd565b9350612f96818560208601612374565b80840191505092915050565b6000612fae8285612ec8565b9150612fb982612f4b565b600482019150612fc98284612f71565b91508190509392505050565b600081519050919050565b600082825260208201905092915050565b6000612ffc82612fd5565b6130068185612fe0565b9350613016818560208601612374565b61301f8161239e565b840191505092915050565b600060808201905061303f600083018761249f565b61304c602083018661249f565b6130596040830185612535565b818103606083015261306b8184612ff1565b905095945050505050565b600081519050613085816122c9565b92915050565b6000602082840312156130a1576130a0612293565b5b60006130af84828501613076565b91505092915050565b7f4e487b7100000000000000000000000000000000000000000000000000000000600052601260045260246000fd5b7f4e487b7100000000000000000000000000000000000000000000000000000000600052601160045260246000fd5b60006131218261240a565b915061312c8361240a565b9250828203905081811115613144576131436130e7565b5b92915050565b7f4e487b7100000000000000000000000000000000000000000000000000000000600052603160045260246000fdfea2646970667358221220bf6953b533f573cc9eb3110ca318aa88ad83927a56bd05060655b1aa3047040e64736f6c634300081c0033",
  "linkReferences": {},
  "deployedLinkReferences": {}
}