{
  "_format": "hh-sol-artifact-1",
  "contractName": "YDC_Token",
  "sourceName": "contracts/YDC_Token.sol",
  "abi": [
    {
      "inputs": [],
      "stateMutability": "nonpayable",
      "type": "constructor"
    },
    {
      "inputs": [
        {
          "internalType": "address",
          "name": "spender",
          "type": "address"
        },
        {
          "internalType": "uint256",
          "name": "allowance",
          "type": "uint256"
        },
        {
          "internalType": "uint256",
          "name": "needed",
          "type": "uint256"
        }
      ],
      "name": "ERC20InsufficientAllowance",
      "type": "error"
    },
    {
      "inputs": [
        {
          "internalType": "address",
          "name": "sender",
          "type": "address"
        },
        {
          "internalType": "uint256",
          "name": "balance",
          "type": "uint256"
        },
        {
          "internalType": "uint256",
          "name": "needed",
          "type": "uint256"
        }
      ],
      "name": "ERC20InsufficientBalance",
      "type": "error"
    },
    {
      "inputs": [
        {
          "internalType": "address",
          "name": "approver",
          "type": "address"
        }
      ],
      "name": "ERC20InvalidApprover",
      "type": "error"
    },
    {
      "inputs": [
        {
          "internalType": "address",
          "name": "receiver",
          "type": "address"
        }
      ],
      "name": "ERC20InvalidReceiver",
      "type": "error"
    },
    {
      "inputs": [
        {
          "internalType": "address",
          "name": "sender",
          "type": "address"
        }
      ],
      "name": "ERC20InvalidSender",
      "type": "error"
    },
    {
      "inputs": [
        {
          "internalType": "address",
          "name": "spender",
          "type": "address"
        }
      ],
      "name": "ERC20InvalidSpender",
      "type": "error"
    },
    {
      "inputs": [
        {
          "internalType": "address",
          "name": "owner",
          "type": "address"
        }
      ],
      "name": "OwnableInvalidOwner",
      "type": "error"
    },
    {
      "inputs": [
        {
          "internalType": "address",
          "name": "account",
          "type": "address"
        }
      ],
      "name": "OwnableUnauthorizedAccount",
      "type": "error"
    },
    {
      "anonymous": false,
      "inputs": [
        {
          "indexed": true,
          "internalType": "address",
          "name": "owner",
          "type": "address"
        },
        {
          "indexed": true,
          "internalType": "address",
          "name": "spender",
          "type": "address"
        },
        {
          "indexed": false,
          "internalType": "uint256",
          "name": "value",
          "type": "uint256"
        }
      ],
      "name": "Approval",
      "type": "event"
    },
    {
      "anonymous": false,
      "inputs": [
        {
          "indexed": true,
          "internalType": "address",
          "name": "previousOwner",
          "type": "address"
        },
        {
          "indexed": true,
          "internalType": "address",
          "name": "newOwner",
          "type": "address"
        }
      ],
      "name": "OwnershipTransferStarted",
      "type": "event"
    },
    {
      "anonymous": false,
      "inputs": [
        {
          "indexed": true,
          "internalType": "address",
          "name": "previousOwner",
          "type": "address"
        },
        {
          "indexed": true,
          "internalType": "address",
          "name": "newOwner",
          "type": "address"
        }
      ],
      "name": "OwnershipTransferred",
      "type": "event"
    },
    {
      "anonymous": false,
      "inputs": [
        {
          "indexed": true,
          "internalType": "address",
          "name": "from",
          "type": "address"
        },
        {
          "indexed": true,
          "internalType": "address",
          "name": "to",
          "type": "address"
        },
        {
          "indexed": false,
          "internalType": "uint256",
          "name": "value",
          "type": "uint256"
        }
      ],
      "name": "Transfer",
      "type": "event"
    },
    {
      "inputs": [],
      "name": "acceptOwnership",
      "outputs": [],
      "stateMutability": "nonpayable",
      "type": "function"
    },
    {
      "inputs": [
        {
          "internalType": "address",
          "name": "target",
          "type": "address"
        }
      ],
      "name": "acceptOwnershipForMe",
      "outputs": [],
      "stateMutability": "nonpayable",
      "type": "function"
    },
    {
      "inputs": [
        {
          "internalType": "address",
          "name": "owner",
          "type": "address"
        },
        {
          "internalType": "address",
          "name": "spender",
          "type": "address"
        }
      ],
      "name": "allowance",
      "outputs": [
        {
          "internalType": "uint256",
          "name": "",
          "type": "uint256"
        }
      ],
      "stateMutability": "view",
      "type": "function"
    },
    {
      "inputs": [
        {
          "internalType": "address",
          "name": "spender",
          "type": "address"
        },
        {
          "internalType": "uint256",
          "name": "value",
          "type": "uint256"
        }
      ],
      "name": "approve",
      "outputs": [
        {
          "internalType": "bool",
          "name": "",
          "type": "bool"
        }
      ],
      "stateMutability": "nonpayable",
      "type": "function"
    },
    {
      "inputs": [
        {
          "internalType": "address",
          "name": "account",
          "type": "address"
        }
      ],
      "name": "balanceOf",
      "outputs": [
        {
          "internalType": "uint256",
          "name": "",
          "type": "uint256"
        }
      ],
      "stateMutability": "view",
      "type": "function"
    },
    {
      "inputs": [],
      "name": "decimals",
      "outputs": [
        {
          "internalType": "uint8",
          "name": "",
          "type": "uint8"
        }
      ],
      "stateMutability": "view",
      "type": "function"
    },
    {
      "inputs": [
        {
          "internalType": "address",
          "name": "user",
          "type": "address"
        },
        {
          "internalType": "uint256",
          "name": "amount",
          "type": "uint256"
        }
      ],
      "name": "mintFor",
      "outputs": [],
      "stateMutability": "nonpayable",
      "type": "function"
    },
    {
      "inputs": [],
      "name": "name",
      "outputs": [
        {
          "internalType": "string",
          "name": "",
          "type": "string"
        }
      ],
      "stateMutability": "view",
      "type": "function"
    },
    {
      "inputs": [],
      "name": "owner",
      "outputs": [
        {
          "internalType": "address",
          "name": "",
          "type": "address"
        }
      ],
      "stateMutability": "view",
      "type": "function"
    },
    {
      "inputs": [],
      "name": "pendingOwner",
      "outputs": [
        {
          "internalType": "address",
          "name": "",
          "type": "address"
        }
      ],
      "stateMutability": "view",
      "type": "function"
    },
    {
      "inputs": [],
      "name": "renounceOwnership",
      "outputs": [],
      "stateMutability": "nonpayable",
      "type": "function"
    },
    {
      "inputs": [],
      "name": "symbol",
      "outputs": [
        {
          "internalType": "string",
          "name": "",
          "type": "string"
        }
      ],
      "stateMutability": "view",
      "type": "function"
    },
    {
      "inputs": [],
      "name": "totalSupply",
      "outputs": [
        {
          "internalType": "uint256",
          "name": "",
          "type": "uint256"
        }
      ],
      "stateMutability": "view",
      "type": "function"
    },
    {
      "inputs": [
        {
          "internalType": "address",
          "name": "to",
          "type": "address"
        },
        {
          "internalType": "uint256",
          "name": "value",
          "type": "uint256"
        }
      ],
      "name": "transfer",
      "outputs": [
        {
          "internalType": "bool",
          "name": "",
          "type": "bool"
        }
      ],
      "stateMutability": "nonpayable",
      "type": "function"
    },
    {
      "inputs": [
        {
          "internalType": "address",
          "name": "from",
          "type": "address"
        },
        {
          "internalType": "address",
          "name": "to",
          "type": "address"
        },
        {
          "internalType": "uint256",
          "name": "value",
          "type": "uint256"
        }
      ],
      "name": "transferFrom",
      "outputs": [
        {
          "internalType": "bool",
          "name": "",
          "type": "bool"
        }
      ],
      "stateMutability": "nonpayable",
      "type": "function"
    },
    {
      "inputs": [
        {
          "internalType": "address",
          "name": "newOwner",
          "type": "address"
        }
      ],
      "name": "transferOwnership",
      "outputs": [],
      "stateMutability": "nonpayable",
      "type": "function"
    }
  ],
  "bytecode": "0x608060405234801561001057600080fd5b5061001f61013460201b60201c565b6040518060400160405280601481526020017f596944656e6720436f6c6c65676520546f6b656e0000000000000000000000008152506040518060400160405280600381526020017f5944430000000000000000000000000000000000000000000000000000000000815250816003908161009a9190610489565b5080600490816100aa9190610489565b505050600073ffffffffffffffffffffffffffffffffffffffff168173ffffffffffffffffffffffffffffffffffffffff160361011f5760006040517f1e4fbdf7000000000000000000000000000000000000000000000000000000008152600401610116919061059c565b60405180910390fd5b61012e8161013c60201b60201c565b506105b7565b600033905090565b600660006101000a81549073ffffffffffffffffffffffffffffffffffffffff02191690556101708161017360201b60201c565b50565b6000600560009054906101000a900473ffffffffffffffffffffffffffffffffffffffff16905081600560006101000a81548173ffffffffffffffffffffffffffffffffffffffff021916908373ffffffffffffffffffffffffffffffffffffffff1602179055508173ffffffffffffffffffffffffffffffffffffffff168173ffffffffffffffffffffffffffffffffffffffff167f8be0079c531659141344cd1fd0a4f28419497f9722a3daafe3b4186f6b6457e060405160405180910390a35050565b600081519050919050565b7f4e487b7100000000000000000000000000000000000000000000000000000000600052604160045260246000fd5b7f4e487b7100000000000000000000000000000000000000000000000000000000600052602260045260246000fd5b600060028204905060018216806102ba57607f821691505b6020821081036102cd576102cc610273565b5b50919050565b60008190508160005260206000209050919050565b60006020601f8301049050919050565b600082821b905092915050565b6000600883026103357fffffffffffffffffffffffffffffffffffffffffffffffffffffffffffffffff826102f8565b61033f86836102f8565b95508019841693508086168417925050509392505050565b6000819050919050565b6000819050919050565b600061038661038161037c84610357565b610361565b610357565b9050919050565b6000819050919050565b6103a08361036b565b6103b46103ac8261038d565b848454610305565b825550505050565b600090565b6103c96103bc565b6103d4818484610397565b505050565b5b818110156103f8576103ed6000826103c1565b6001810190506103da565b5050565b601f82111561043d5761040e816102d3565b610417846102e8565b81016020851015610426578190505b61043a610432856102e8565b8301826103d9565b50505b505050565b600082821c905092915050565b600061046060001984600802610442565b1980831691505092915050565b6000610479838361044f565b9150826002028217905092915050565b61049282610239565b67ffffffffffffffff8111156104ab576104aa610244565b5b6104b582546102a2565b6104c08282856103fc565b600060209050601f8311600181146104f357600084156104e1578287015190505b6104eb858261046d565b865550610553565b601f198416610501866102d3565b60005b8281101561052957848901518255600182019150602085019450602081019050610504565b868310156105465784890151610542601f89168261044f565b8355505b6001600288020188555050505b505050505050565b600073ffffffffffffffffffffffffffffffffffffffff82169050919050565b60006105868261055b565b9050919050565b6105968161057b565b82525050565b60006020820190506105b1600083018461058d565b92915050565b61137f806105c66000396000f3fe608060405234801561001057600080fd5b50600436106101005760003560e01c80638da5cb5b11610097578063da1919b311610066578063da1919b31461028b578063dd62ed3e146102a7578063e30c3978146102d7578063f2fde38b146102f557610100565b80638da5cb5b1461020357806395d89b41146102215780639937e2241461023f578063a9059cbb1461025b57610100565b8063313ce567116100d3578063313ce567146101a157806370a08231146101bf578063715018a6146101ef57806379ba5097146101f957610100565b806306fdde0314610105578063095ea7b31461012357806318160ddd1461015357806323b872dd14610171575b600080fd5b61010d610311565b60405161011a9190610fd3565b60405180910390f35b61013d6004803603810190610138919061108e565b6103a3565b60405161014a91906110e9565b60405180910390f35b61015b6103c6565b6040516101689190611113565b60405180910390f35b61018b6004803603810190610186919061112e565b6103d0565b60405161019891906110e9565b60405180910390f35b6101a96103ff565b6040516101b6919061119d565b60405180910390f35b6101d960048036038101906101d491906111b8565b610404565b6040516101e69190611113565b60405180910390f35b6101f761044c565b005b610201610460565b005b61020b6104ef565b60405161021891906111f4565b60405180910390f35b610229610519565b6040516102369190610fd3565b60405180910390f35b610259600480360381019061025491906111b8565b6105ab565b005b6102756004803603810190610270919061108e565b61060e565b60405161028291906110e9565b60405180910390f35b6102a560048036038101906102a0919061108e565b610631565b005b6102c160048036038101906102bc919061120f565b610647565b6040516102ce9190611113565b60405180910390f35b6102df6106ce565b6040516102ec91906111f4565b60405180910390f35b61030f600480360381019061030a91906111b8565b6106f8565b005b6060600380546103209061127e565b80601f016020809104026020016040519081016040528092919081815260200182805461034c9061127e565b80156103995780601f1061036e57610100808354040283529160200191610399565b820191906000526020600020905b81548152906001019060200180831161037c57829003601f168201915b5050505050905090565b6000806103ae6107a5565b90506103bb8185856107ad565b600191505092915050565b6000600254905090565b6000806103db6107a5565b90506103e88582856107bf565b6103f3858585610853565b60019150509392505050565b600090565b60008060008373ffffffffffffffffffffffffffffffffffffffff1673ffffffffffffffffffffffffffffffffffffffff168152602001908152602001600020549050919050565b610454610947565b61045e60006109ce565b565b600061046a6107a5565b90508073ffffffffffffffffffffffffffffffffffffffff1661048b6106ce565b73ffffffffffffffffffffffffffffffffffffffff16146104e357806040517f118cdaa70000000000000000000000000000000000000000000000000000000081526004016104da91906111f4565b60405180910390fd5b6104ec816109ce565b50565b6000600560009054906101000a900473ffffffffffffffffffffffffffffffffffffffff16905090565b6060600480546105289061127e565b80601f01602080910402602001604051908101604052809291908181526020018280546105549061127e565b80156105a15780601f10610576576101008083540402835291602001916105a1565b820191906000526020600020905b81548152906001019060200180831161058457829003601f168201915b5050505050905090565b8073ffffffffffffffffffffffffffffffffffffffff166379ba50976040518163ffffffff1660e01b8152600401600060405180830381600087803b1580156105f357600080fd5b505af1158015610607573d6000803e3d6000fd5b5050505050565b6000806106196107a5565b9050610626818585610853565b600191505092915050565b610639610947565b61064382826109ff565b5050565b6000600160008473ffffffffffffffffffffffffffffffffffffffff1673ffffffffffffffffffffffffffffffffffffffff16815260200190815260200160002060008373ffffffffffffffffffffffffffffffffffffffff1673ffffffffffffffffffffffffffffffffffffffff16815260200190815260200160002054905092915050565b6000600660009054906101000a900473ffffffffffffffffffffffffffffffffffffffff16905090565b610700610947565b80600660006101000a81548173ffffffffffffffffffffffffffffffffffffffff021916908373ffffffffffffffffffffffffffffffffffffffff1602179055508073ffffffffffffffffffffffffffffffffffffffff166107606104ef565b73ffffffffffffffffffffffffffffffffffffffff167f38d16b8cac22d99fc7c124b9cd0de2d3fa1faef420bfe791d8c362d765e2270060405160405180910390a350565b600033905090565b6107ba8383836001610a81565b505050565b60006107cb8484610647565b90507fffffffffffffffffffffffffffffffffffffffffffffffffffffffffffffffff811461084d578181101561083d578281836040517ffb8f41b2000000000000000000000000000000000000000000000000000000008152600401610834939291906112af565b60405180910390fd5b61084c84848484036000610a81565b5b50505050565b600073ffffffffffffffffffffffffffffffffffffffff168373ffffffffffffffffffffffffffffffffffffffff16036108c55760006040517f96c6fd1e0000000000000000000000000000000000000000000000000000000081526004016108bc91906111f4565b60405180910390fd5b600073ffffffffffffffffffffffffffffffffffffffff168273ffffffffffffffffffffffffffffffffffffffff16036109375760006040517fec442f0500000000000000000000000000000000000000000000000000000000815260040161092e91906111f4565b60405180910390fd5b610942838383610c58565b505050565b61094f6107a5565b73ffffffffffffffffffffffffffffffffffffffff1661096d6104ef565b73ffffffffffffffffffffffffffffffffffffffff16146109cc576109906107a5565b6040517f118cdaa70000000000000000000000000000000000000000000000000000000081526004016109c391906111f4565b60405180910390fd5b565b600660006101000a81549073ffffffffffffffffffffffffffffffffffffffff02191690556109fc81610e7d565b50565b600073ffffffffffffffffffffffffffffffffffffffff168273ffffffffffffffffffffffffffffffffffffffff1603610a715760006040517fec442f05000000000000000000000000000000000000000000000000000000008152600401610a6891906111f4565b60405180910390fd5b610a7d60008383610c58565b5050565b600073ffffffffffffffffffffffffffffffffffffffff168473ffffffffffffffffffffffffffffffffffffffff1603610af35760006040517fe602df05000000000000000000000000000000000000000000000000000000008152600401610aea91906111f4565b60405180910390fd5b600073ffffffffffffffffffffffffffffffffffffffff168373ffffffffffffffffffffffffffffffffffffffff1603610b655760006040517f94280d62000000000000000000000000000000000000000000000000000000008152600401610b5c91906111f4565b60405180910390fd5b81600160008673ffffffffffffffffffffffffffffffffffffffff1673ffffffffffffffffffffffffffffffffffffffff16815260200190815260200160002060008573ffffffffffffffffffffffffffffffffffffffff1673ffffffffffffffffffffffffffffffffffffffff168152602001908152602001600020819055508015610c52578273ffffffffffffffffffffffffffffffffffffffff168473ffffffffffffffffffffffffffffffffffffffff167f8c5be1e5ebec7d5bd14f71427d1e84f3dd0314c0f7b2291e5b200ac8c7c3b92584604051610c499190611113565b60405180910390a35b50505050565b600073ffffffffffffffffffffffffffffffffffffffff168373ffffffffffffffffffffffffffffffffffffffff1603610caa578060026000828254610c9e9190611315565b92505081905550610d7d565b60008060008573ffffffffffffffffffffffffffffffffffffffff1673ffffffffffffffffffffffffffffffffffffffff16815260200190815260200160002054905081811015610d36578381836040517fe450d38c000000000000000000000000000000000000000000000000000000008152600401610d2d939291906112af565b60405180910390fd5b8181036000808673ffffffffffffffffffffffffffffffffffffffff1673ffffffffffffffffffffffffffffffffffffffff16815260200190815260200160002081905550505b600073ffffffffffffffffffffffffffffffffffffffff168273ffffffffffffffffffffffffffffffffffffffff1603610dc65780600260008282540392505081905550610e13565b806000808473ffffffffffffffffffffffffffffffffffffffff1673ffffffffffffffffffffffffffffffffffffffff168152602001908152602001600020600082825401925050819055505b8173ffffffffffffffffffffffffffffffffffffffff168373ffffffffffffffffffffffffffffffffffffffff167fddf252ad1be2c89b69c2b068fc378daa952ba7f163c4a11628f55a4df523b3ef83604051610e709190611113565b60405180910390a3505050565b6000600560009054906101000a900473ffffffffffffffffffffffffffffffffffffffff16905081600560006101000a81548173ffffffffffffffffffffffffffffffffffffffff021916908373ffffffffffffffffffffffffffffffffffffffff1602179055508173ffffffffffffffffffffffffffffffffffffffff168173ffffffffffffffffffffffffffffffffffffffff167f8be0079c531659141344cd1fd0a4f28419497f9722a3daafe3b4186f6b6457e060405160405180910390a35050565b600081519050919050565b600082825260208201905092915050565b60005b83811015610f7d578082015181840152602081019050610f62565b60008484015250505050565b6000601f19601f8301169050919050565b6000610fa582610f43565b610faf8185610f4e565b9350610fbf818560208601610f5f565b610fc881610f89565b840191505092915050565b60006020820190508181036000830152610fed8184610f9a565b905092915050565b600080fd5b600073ffffffffffffffffffffffffffffffffffffffff82169050919050565b600061102582610ffa565b9050919050565b6110358161101a565b811461104057600080fd5b50565b6000813590506110528161102c565b92915050565b6000819050919050565b61106b81611058565b811461107657600080fd5b50565b60008135905061108881611062565b92915050565b600080604083850312156110a5576110a4610ff5565b5b60006110b385828601611043565b92505060206110c485828601611079565b9150509250929050565b60008115159050919050565b6110e3816110ce565b82525050565b60006020820190506110fe60008301846110da565b92915050565b61110d81611058565b82525050565b60006020820190506111286000830184611104565b92915050565b60008060006060848603121561114757611146610ff5565b5b600061115586828701611043565b935050602061116686828701611043565b925050604061117786828701611079565b9150509250925092565b600060ff82169050919050565b61119781611181565b82525050565b60006020820190506111b2600083018461118e565b92915050565b6000602082840312156111ce576111cd610ff5565b5b60006111dc84828501611043565b91505092915050565b6111ee8161101a565b82525050565b600060208201905061120960008301846111e5565b92915050565b6000806040838503121561122657611225610ff5565b5b600061123485828601611043565b925050602061124585828601611043565b9150509250929050565b7f4e487b7100000000000000000000000000000000000000000000000000000000600052602260045260246000fd5b6000600282049050600182168061129657607f821691505b6020821081036112a9576112a861124f565b5b50919050565b60006060820190506112c460008301866111e5565b6112d16020830185611104565b6112de6040830184611104565b949350505050565b7f4e487b7100000000000000000000000000000000000000000000000000000000600052601160045260246000fd5b600061132082611058565b915061132b83611058565b9250828201905080821115611343576113426112e6565b5b9291505056fea2646970667358221220aff8e5b51fceb275f64be32029d149de54ddbb9e6041cb3f3ee597e90693965c64736f6c634300081c0033",
  "linkReferences": {},
  "deployedLinkReferences": {}
}